{
  "_format": "hh-sol-artifact-1",
  "contractName": "HenkakuBadge",
  "sourceName": "contracts/HenkakuBadge.sol",
  "abi": [
    {
      "inputs": [
        {
          "internalType": "address",
          "name": "_erc20",
          "type": "address"
        }
      ],
      "stateMutability": "nonpayable",
      "type": "constructor"
    },
    {
      "anonymous": false,
      "inputs": [
        {
          "indexed": true,
          "internalType": "address",
          "name": "account",
          "type": "address"
        },
        {
          "indexed": true,
          "internalType": "address",
          "name": "operator",
          "type": "address"
        },
        {
          "indexed": false,
          "internalType": "bool",
          "name": "approved",
          "type": "bool"
        }
      ],
      "name": "ApprovalForAll",
      "type": "event"
    },
    {
      "anonymous": false,
      "inputs": [
        {
          "indexed": true,
          "internalType": "uint256",
          "name": "id",
          "type": "uint256"
        },
        {
          "indexed": false,
          "internalType": "bool",
          "name": "mintable",
          "type": "bool"
        },
        {
          "indexed": false,
          "internalType": "uint256",
          "name": "amount",
          "type": "uint256"
        }
      ],
      "name": "NewBadge",
      "type": "event"
    },
    {
      "anonymous": false,
      "inputs": [
        {
          "indexed": true,
          "internalType": "address",
          "name": "previousOwner",
          "type": "address"
        },
        {
          "indexed": true,
          "internalType": "address",
          "name": "newOwner",
          "type": "address"
        }
      ],
      "name": "OwnershipTransferred",
      "type": "event"
    },
    {
      "anonymous": false,
      "inputs": [
        {
          "indexed": true,
          "internalType": "address",
          "name": "operator",
          "type": "address"
        },
        {
          "indexed": true,
          "internalType": "address",
          "name": "from",
          "type": "address"
        },
        {
          "indexed": true,
          "internalType": "address",
          "name": "to",
          "type": "address"
        },
        {
          "indexed": false,
          "internalType": "uint256[]",
          "name": "ids",
          "type": "uint256[]"
        },
        {
          "indexed": false,
          "internalType": "uint256[]",
          "name": "values",
          "type": "uint256[]"
        }
      ],
      "name": "TransferBatch",
      "type": "event"
    },
    {
      "anonymous": false,
      "inputs": [
        {
          "indexed": true,
          "internalType": "address",
          "name": "operator",
          "type": "address"
        },
        {
          "indexed": true,
          "internalType": "address",
          "name": "from",
          "type": "address"
        },
        {
          "indexed": true,
          "internalType": "address",
          "name": "to",
          "type": "address"
        },
        {
          "indexed": false,
          "internalType": "uint256",
          "name": "id",
          "type": "uint256"
        },
        {
          "indexed": false,
          "internalType": "uint256",
          "name": "value",
          "type": "uint256"
        }
      ],
      "name": "TransferSingle",
      "type": "event"
    },
    {
      "anonymous": false,
      "inputs": [
        {
          "indexed": false,
          "internalType": "string",
          "name": "value",
          "type": "string"
        },
        {
          "indexed": true,
          "internalType": "uint256",
          "name": "id",
          "type": "uint256"
        }
      ],
      "name": "URI",
      "type": "event"
    },
    {
      "anonymous": false,
      "inputs": [
        {
          "indexed": true,
          "internalType": "uint256",
          "name": "id",
          "type": "uint256"
        },
        {
          "indexed": false,
          "internalType": "bool",
          "name": "mintable",
          "type": "bool"
        }
      ],
      "name": "UpdateBadge",
      "type": "event"
    },
    {
      "inputs": [
        {
          "internalType": "uint256",
          "name": "",
          "type": "uint256"
        }
      ],
      "name": "badges",
      "outputs": [
        {
          "internalType": "bool",
          "name": "mintable",
          "type": "bool"
        },
        {
          "internalType": "bool",
          "name": "transferable",
          "type": "bool"
        },
        {
          "internalType": "uint256",
          "name": "amount",
          "type": "uint256"
        },
        {
          "internalType": "uint256",
          "name": "maxSupply",
          "type": "uint256"
        },
        {
          "internalType": "string",
          "name": "tokenURI",
          "type": "string"
        }
      ],
      "stateMutability": "view",
      "type": "function"
    },
    {
      "inputs": [
        {
          "internalType": "address",
          "name": "_of",
          "type": "address"
        }
      ],
      "name": "badgesOf",
      "outputs": [
        {
          "components": [
            {
              "internalType": "bool",
              "name": "mintable",
              "type": "bool"
            },
            {
              "internalType": "bool",
              "name": "transferable",
              "type": "bool"
            },
            {
              "internalType": "uint256",
              "name": "amount",
              "type": "uint256"
            },
            {
              "internalType": "uint256",
              "name": "maxSupply",
              "type": "uint256"
            },
            {
              "internalType": "string",
              "name": "tokenURI",
              "type": "string"
            }
          ],
          "internalType": "struct HenkakuBadge.Badge[]",
          "name": "",
          "type": "tuple[]"
        }
      ],
      "stateMutability": "view",
      "type": "function"
    },
    {
      "inputs": [
        {
          "internalType": "address",
          "name": "account",
          "type": "address"
        },
        {
          "internalType": "uint256",
          "name": "id",
          "type": "uint256"
        }
      ],
      "name": "balanceOf",
      "outputs": [
        {
          "internalType": "uint256",
          "name": "",
          "type": "uint256"
        }
      ],
      "stateMutability": "view",
      "type": "function"
    },
    {
      "inputs": [
        {
          "internalType": "address[]",
          "name": "accounts",
          "type": "address[]"
        },
        {
          "internalType": "uint256[]",
          "name": "ids",
          "type": "uint256[]"
        }
      ],
      "name": "balanceOfBatch",
      "outputs": [
        {
          "internalType": "uint256[]",
          "name": "",
          "type": "uint256[]"
        }
      ],
      "stateMutability": "view",
      "type": "function"
    },
    {
      "inputs": [
        {
          "internalType": "uint256",
          "name": "_tokenId",
          "type": "uint256"
        },
        {
          "internalType": "address",
          "name": "_of",
          "type": "address"
        }
      ],
      "name": "burn",
      "outputs": [],
      "stateMutability": "nonpayable",
      "type": "function"
    },
    {
      "inputs": [
        {
          "components": [
            {
              "internalType": "bool",
              "name": "mintable",
              "type": "bool"
            },
            {
              "internalType": "bool",
              "name": "transferable",
              "type": "bool"
            },
            {
              "internalType": "uint256",
              "name": "amount",
              "type": "uint256"
            },
            {
              "internalType": "uint256",
              "name": "maxSupply",
              "type": "uint256"
            },
            {
              "internalType": "string",
              "name": "tokenURI",
              "type": "string"
            }
          ],
          "internalType": "struct HenkakuBadge.Badge",
          "name": "_badge",
          "type": "tuple"
        }
      ],
      "name": "createBadge",
      "outputs": [],
      "stateMutability": "nonpayable",
      "type": "function"
    },
    {
      "inputs": [],
      "name": "erc20",
      "outputs": [
        {
          "internalType": "contract IERC20",
          "name": "",
          "type": "address"
        }
      ],
      "stateMutability": "view",
      "type": "function"
    },
    {
      "inputs": [],
      "name": "getBadges",
      "outputs": [
        {
          "components": [
            {
              "internalType": "bool",
              "name": "mintable",
              "type": "bool"
            },
            {
              "internalType": "bool",
              "name": "transferable",
              "type": "bool"
            },
            {
              "internalType": "uint256",
              "name": "amount",
              "type": "uint256"
            },
            {
              "internalType": "uint256",
              "name": "maxSupply",
              "type": "uint256"
            },
            {
              "internalType": "string",
              "name": "tokenURI",
              "type": "string"
            }
          ],
          "internalType": "struct HenkakuBadge.Badge[]",
          "name": "",
          "type": "tuple[]"
        }
      ],
      "stateMutability": "view",
      "type": "function"
    },
    {
      "inputs": [
        {
          "internalType": "address",
          "name": "account",
          "type": "address"
        },
        {
          "internalType": "address",
          "name": "operator",
          "type": "address"
        }
      ],
      "name": "isApprovedForAll",
      "outputs": [
        {
          "internalType": "bool",
          "name": "",
          "type": "bool"
        }
      ],
      "stateMutability": "view",
      "type": "function"
    },
    {
      "inputs": [
        {
          "internalType": "uint256",
          "name": "_tokenId",
          "type": "uint256"
        }
      ],
      "name": "mint",
      "outputs": [],
      "stateMutability": "nonpayable",
      "type": "function"
    },
    {
      "inputs": [
        {
          "internalType": "uint256",
          "name": "_tokenId",
          "type": "uint256"
        },
        {
          "internalType": "address",
          "name": "_to",
          "type": "address"
        }
      ],
      "name": "mintByAdmin",
      "outputs": [],
      "stateMutability": "nonpayable",
      "type": "function"
    },
    {
      "inputs": [],
      "name": "owner",
      "outputs": [
        {
          "internalType": "address",
          "name": "",
          "type": "address"
        }
      ],
      "stateMutability": "view",
      "type": "function"
    },
    {
      "inputs": [],
      "name": "renounceOwnership",
      "outputs": [],
      "stateMutability": "nonpayable",
      "type": "function"
    },
    {
      "inputs": [
        {
          "internalType": "address",
          "name": "from",
          "type": "address"
        },
        {
          "internalType": "address",
          "name": "to",
          "type": "address"
        },
        {
          "internalType": "uint256[]",
          "name": "ids",
          "type": "uint256[]"
        },
        {
          "internalType": "uint256[]",
          "name": "amounts",
          "type": "uint256[]"
        },
        {
          "internalType": "bytes",
          "name": "data",
          "type": "bytes"
        }
      ],
      "name": "safeBatchTransferFrom",
      "outputs": [],
      "stateMutability": "nonpayable",
      "type": "function"
    },
    {
      "inputs": [
        {
          "internalType": "address",
          "name": "_from",
          "type": "address"
        },
        {
          "internalType": "address",
          "name": "_to",
          "type": "address"
        },
        {
          "internalType": "uint256",
          "name": "_tokenId",
          "type": "uint256"
        },
        {
          "internalType": "uint256",
          "name": "_amount",
          "type": "uint256"
        },
        {
          "internalType": "bytes",
          "name": "_data",
          "type": "bytes"
        }
      ],
      "name": "safeTransferFrom",
      "outputs": [],
      "stateMutability": "nonpayable",
      "type": "function"
    },
    {
      "inputs": [
        {
          "internalType": "address",
          "name": "operator",
          "type": "address"
        },
        {
          "internalType": "bool",
          "name": "approved",
          "type": "bool"
        }
      ],
      "name": "setApprovalForAll",
      "outputs": [],
      "stateMutability": "nonpayable",
      "type": "function"
    },
    {
      "inputs": [
        {
          "internalType": "address",
          "name": "_addr",
          "type": "address"
        }
      ],
      "name": "setERC20",
      "outputs": [],
      "stateMutability": "nonpayable",
      "type": "function"
    },
    {
      "inputs": [
        {
          "internalType": "bytes4",
          "name": "interfaceId",
          "type": "bytes4"
        }
      ],
      "name": "supportsInterface",
      "outputs": [
        {
          "internalType": "bool",
          "name": "",
          "type": "bool"
        }
      ],
      "stateMutability": "view",
      "type": "function"
    },
    {
      "inputs": [],
      "name": "tokenAmount",
      "outputs": [
        {
          "internalType": "uint256",
          "name": "",
          "type": "uint256"
        }
      ],
      "stateMutability": "view",
      "type": "function"
    },
    {
      "inputs": [
        {
          "internalType": "uint256",
          "name": "",
          "type": "uint256"
        }
      ],
      "name": "totalSupply",
      "outputs": [
        {
          "internalType": "uint256",
          "name": "",
          "type": "uint256"
        }
      ],
      "stateMutability": "view",
      "type": "function"
    },
    {
      "inputs": [
        {
          "internalType": "address",
          "name": "newOwner",
          "type": "address"
        }
      ],
      "name": "transferOwnership",
      "outputs": [],
      "stateMutability": "nonpayable",
      "type": "function"
    },
    {
      "inputs": [
        {
          "internalType": "uint256",
          "name": "_tokenId",
          "type": "uint256"
        },
        {
          "internalType": "bool",
          "name": "_mintable",
          "type": "bool"
        },
        {
          "internalType": "string",
          "name": "_tokenURI",
          "type": "string"
        }
      ],
      "name": "updateBadgeAttr",
      "outputs": [],
      "stateMutability": "nonpayable",
      "type": "function"
    },
    {
      "inputs": [
        {
          "internalType": "uint256",
          "name": "_tokenId",
          "type": "uint256"
        }
      ],
      "name": "uri",
      "outputs": [
        {
          "internalType": "string",
          "name": "",
          "type": "string"
        }
      ],
      "stateMutability": "view",
      "type": "function"
    }
  ],
  "bytecode": "0x60a060405260016080908152503480156200001957600080fd5b506040516200523e3803806200523e83398181016040528101906200003f919062000347565b6040518060200160405280600081525062000060816200009960201b60201c565b506200008162000075620000b560201b60201c565b620000bd60201b60201c565b62000092816200018360201b60201c565b50620004a9565b8060029080519060200190620000b192919062000280565b5050565b600033905090565b6000600360009054906101000a900473ffffffffffffffffffffffffffffffffffffffff16905081600360006101000a81548173ffffffffffffffffffffffffffffffffffffffff021916908373ffffffffffffffffffffffffffffffffffffffff1602179055508173ffffffffffffffffffffffffffffffffffffffff168173ffffffffffffffffffffffffffffffffffffffff167f8be0079c531659141344cd1fd0a4f28419497f9722a3daafe3b4186f6b6457e060405160405180910390a35050565b62000193620000b560201b60201c565b73ffffffffffffffffffffffffffffffffffffffff16620001b96200025660201b60201c565b73ffffffffffffffffffffffffffffffffffffffff161462000212576040517f08c379a000000000000000000000000000000000000000000000000000000000815260040162000209906200039a565b60405180910390fd5b80600560006101000a81548173ffffffffffffffffffffffffffffffffffffffff021916908373ffffffffffffffffffffffffffffffffffffffff16021790555050565b6000600360009054906101000a900473ffffffffffffffffffffffffffffffffffffffff16905090565b8280546200028e9062000401565b90600052602060002090601f016020900481019282620002b25760008555620002fe565b82601f10620002cd57805160ff1916838001178555620002fe565b82800160010185558215620002fe579182015b82811115620002fd578251825591602001919060010190620002e0565b5b5090506200030d919062000311565b5090565b5b808211156200032c57600081600090555060010162000312565b5090565b60008151905062000341816200048f565b92915050565b6000602082840312156200035a57600080fd5b60006200036a8482850162000330565b91505092915050565b600062000382602083620003bc565b91506200038f8262000466565b602082019050919050565b60006020820190508181036000830152620003b58162000373565b9050919050565b600082825260208201905092915050565b6000620003da82620003e1565b9050919050565b600073ffffffffffffffffffffffffffffffffffffffff82169050919050565b600060028204905060018216806200041a57607f821691505b6020821081141562000431576200043062000437565b5b50919050565b7f4e487b7100000000000000000000000000000000000000000000000000000000600052602260045260246000fd5b7f4f776e61626c653a2063616c6c6572206973206e6f7420746865206f776e6572600082015250565b6200049a81620003cd565b8114620004a657600080fd5b50565b608051614d64620004da60003960008181610ce6015281816113f4015281816118610152611d3c0152614d646000f3fe608060405234801561001057600080fd5b506004361061014c5760003560e01c806398e36d8b116100c3578063e985e9c51161007c578063e985e9c5146103b1578063eec7faa1146103e1578063f242432a146103ff578063f2fde38b1461041b578063f5ba646a14610437578063fcd3533c146104535761014c565b806398e36d8b146102c9578063a0712d68146102fd578063a22cb46514610319578063bd85b03914610335578063c29a6fda14610365578063d12c1e28146103815761014c565b80634e1273f4116101155780634e1273f41461021b578063715018a61461024b578063770c76dd14610255578063785e9e86146102715780638b6c02701461028f5780638da5cb5b146102ab5761014c565b8062fdd58e1461015157806301ffc9a7146101815780630e89341c146101b15780632eb2c2d6146101e157806342a04fea146101fd575b600080fd5b61016b6004803603810190610166919061357a565b61046f565b6040516101789190614236565b60405180910390f35b61019b6004803603810190610196919061364b565b610538565b6040516101a89190613ebb565b60405180910390f35b6101cb60048036038101906101c691906136de565b61061a565b6040516101d89190613f74565b60405180910390f35b6101fb60048036038101906101f691906133f0565b6106c2565b005b610205610763565b6040516102129190613e40565b60405180910390f35b610235600480360381019061023091906135b6565b610965565b6040516102429190613e62565b60405180910390f35b610253610b16565b005b61026f600480360381019061026a9190613730565b610b9e565b005b610279610e56565b6040516102869190613f59565b60405180910390f35b6102a960048036038101906102a4919061369d565b610e7c565b005b6102b3610ff7565b6040516102c09190613d2c565b60405180910390f35b6102e360048036038101906102de91906136de565b611021565b6040516102f4959493929190613ed6565b60405180910390f35b610317600480360381019061031291906136de565b6110f9565b005b610333600480360381019061032e919061353e565b611563565b005b61034f600480360381019061034a91906136de565b611579565b60405161035c9190614236565b60405180910390f35b61037f600480360381019061037a919061338b565b611591565b005b61039b6004803603810190610396919061338b565b611651565b6040516103a89190613e40565b60405180910390f35b6103cb60048036038101906103c691906133b4565b6117cb565b6040516103d89190613ebb565b60405180910390f35b6103e961185f565b6040516103f69190614236565b60405180910390f35b610419600480360381019061041491906134af565b611883565b005b6104356004803603810190610430919061338b565b611954565b005b610451600480360381019061044c919061376c565b611a4c565b005b61046d60048036038101906104689190613730565b611bb8565b005b60008073ffffffffffffffffffffffffffffffffffffffff168373ffffffffffffffffffffffffffffffffffffffff1614156104e0576040517f08c379a00000000000000000000000000000000000000000000000000000000081526004016104d790613ff6565b60405180910390fd5b60008083815260200190815260200160002060008473ffffffffffffffffffffffffffffffffffffffff1673ffffffffffffffffffffffffffffffffffffffff16815260200190815260200160002054905092915050565b60007fd9b67a26000000000000000000000000000000000000000000000000000000007bffffffffffffffffffffffffffffffffffffffffffffffffffffffff1916827bffffffffffffffffffffffffffffffffffffffffffffffffffffffff1916148061060357507f0e89341c000000000000000000000000000000000000000000000000000000007bffffffffffffffffffffffffffffffffffffffffffffffffffffffff1916827bffffffffffffffffffffffffffffffffffffffffffffffffffffffff1916145b80610613575061061282611d67565b5b9050919050565b606060066000838152602001908152602001600020600301805461063d90614578565b80601f016020809104026020016040519081016040528092919081815260200182805461066990614578565b80156106b65780601f1061068b576101008083540402835291602001916106b6565b820191906000526020600020905b81548152906001019060200180831161069957829003601f168201915b50505050509050919050565b6106ca611dd1565b73ffffffffffffffffffffffffffffffffffffffff168573ffffffffffffffffffffffffffffffffffffffff161480610710575061070f8561070a611dd1565b6117cb565b5b61074f576040517f08c379a000000000000000000000000000000000000000000000000000000000815260040161074690614096565b60405180910390fd5b61075c8585858585611dd9565b5050505050565b606060006107716004612147565b67ffffffffffffffff8111156107b0577f4e487b7100000000000000000000000000000000000000000000000000000000600052604160045260246000fd5b6040519080825280602002602001820160405280156107e957816020015b6107d6612ef9565b8152602001906001900390816107ce5790505b50905060005b6107f96004612147565b81101561095d57600660006001836108119190614414565b81526020019081526020016000206040518060a00160405290816000820160009054906101000a900460ff161515151581526020016000820160019054906101000a900460ff16151515158152602001600182015481526020016002820154815260200160038201805461088490614578565b80601f01602080910402602001604051908101604052809291908181526020018280546108b090614578565b80156108fd5780601f106108d2576101008083540402835291602001916108fd565b820191906000526020600020905b8154815290600101906020018083116108e057829003601f168201915b50505050508152505082828151811061093f577f4e487b7100000000000000000000000000000000000000000000000000000000600052603260045260246000fd5b60200260200101819052508080610955906145db565b9150506107ef565b508091505090565b606081518351146109ab576040517f08c379a00000000000000000000000000000000000000000000000000000000081526004016109a2906141b6565b60405180910390fd5b6000835167ffffffffffffffff8111156109ee577f4e487b7100000000000000000000000000000000000000000000000000000000600052604160045260246000fd5b604051908082528060200260200182016040528015610a1c5781602001602082028036833780820191505090505b50905060005b8451811015610b0b57610ab5858281518110610a67577f4e487b7100000000000000000000000000000000000000000000000000000000600052603260045260246000fd5b6020026020010151858381518110610aa8577f4e487b7100000000000000000000000000000000000000000000000000000000600052603260045260246000fd5b602002602001015161046f565b828281518110610aee577f4e487b7100000000000000000000000000000000000000000000000000000000600052603260045260246000fd5b60200260200101818152505080610b04906145db565b9050610a22565b508091505092915050565b610b1e611dd1565b73ffffffffffffffffffffffffffffffffffffffff16610b3c610ff7565b73ffffffffffffffffffffffffffffffffffffffff1614610b92576040517f08c379a0000000000000000000000000000000000000000000000000000000008152600401610b8990614116565b60405180910390fd5b610b9c6000612155565b565b610ba6611dd1565b73ffffffffffffffffffffffffffffffffffffffff16610bc4610ff7565b73ffffffffffffffffffffffffffffffffffffffff1614610c1a576040517f08c379a0000000000000000000000000000000000000000000000000000000008152600401610c1190614116565b60405180910390fd5b81600081118015610c345750610c306004612147565b8111155b610c73576040517f08c379a0000000000000000000000000000000000000000000000000000000008152600401610c6a90614216565b60405180910390fd5b826007600082815260200190815260200160002054600660008381526020019081526020016000206002015411610cdf576040517f08c379a0000000000000000000000000000000000000000000000000000000008152600401610cd690614056565b60405180910390fd5b610d1a83857f00000000000000000000000000000000000000000000000000000000000000006040518060200160405280600081525061221b565b6001600760008681526020019081526020016000206000828254610d3e9190614414565b92505081905550600860008473ffffffffffffffffffffffffffffffffffffffff1673ffffffffffffffffffffffffffffffffffffffff1681526020019081526020016000206006600086815260200190815260200160002090806001815401808255809150506001900390600052602060002090600402016000909190919091506000820160009054906101000a900460ff168160000160006101000a81548160ff0219169083151502179055506000820160019054906101000a900460ff168160000160016101000a81548160ff02191690831515021790555060018201548160010155600282015481600201556003820181600301908054610e4290614578565b610e4d929190612f2c565b50505050505050565b600560009054906101000a900473ffffffffffffffffffffffffffffffffffffffff1681565b610e84611dd1565b73ffffffffffffffffffffffffffffffffffffffff16610ea2610ff7565b73ffffffffffffffffffffffffffffffffffffffff1614610ef8576040517f08c379a0000000000000000000000000000000000000000000000000000000008152600401610eef90614116565b60405180910390fd5b610f0260046123cc565b6000610f0e6004612147565b9050816006600083815260200190815260200160002060008201518160000160006101000a81548160ff02191690831515021790555060208201518160000160016101000a81548160ff02191690831515021790555060408201518160010155606082015181600201556080820151816003019080519060200190610f94929190612fb9565b5090505060006007600083815260200190815260200160002081905550807f9ef18f7c92032828a6552beb05354e5fb1aa7dbcd0604eccf546d5e89cb345bc83600001518460400151604051610feb929190613f30565b60405180910390a25050565b6000600360009054906101000a900473ffffffffffffffffffffffffffffffffffffffff16905090565b60066020528060005260406000206000915090508060000160009054906101000a900460ff16908060000160019054906101000a900460ff169080600101549080600201549080600301805461107690614578565b80601f01602080910402602001604051908101604052809291908181526020018280546110a290614578565b80156110ef5780601f106110c4576101008083540402835291602001916110ef565b820191906000526020600020905b8154815290600101906020018083116110d257829003601f168201915b5050505050905085565b80600081118015611113575061110f6004612147565b8111155b611152576040517f08c379a000000000000000000000000000000000000000000000000000000000815260040161114990614216565b60405180910390fd5b8160076000828152602001908152602001600020546006600083815260200190815260200160002060020154116111be576040517f08c379a00000000000000000000000000000000000000000000000000000000081526004016111b590614056565b60405180910390fd5b6006600084815260200190815260200160002060010154600560009054906101000a900473ffffffffffffffffffffffffffffffffffffffff1673ffffffffffffffffffffffffffffffffffffffff166370a08231336040518263ffffffff1660e01b81526004016112309190613d2c565b60206040518083038186803b15801561124857600080fd5b505afa15801561125c573d6000803e3d6000fd5b505050506040513d601f19601f820116820180604052508101906112809190613707565b10156112c1576040517f08c379a00000000000000000000000000000000000000000000000000000000081526004016112b890614156565b60405180910390fd5b6000600660008581526020019081526020016000206001015411156113ed576000600560009054906101000a900473ffffffffffffffffffffffffffffffffffffffff1673ffffffffffffffffffffffffffffffffffffffff166323b872dd333060066000898152602001908152602001600020600101546040518463ffffffff1660e01b815260040161135793929190613daf565b602060405180830381600087803b15801561137157600080fd5b505af1158015611385573d6000803e3d6000fd5b505050506040513d601f19601f820116820180604052508101906113a99190613622565b9050806113eb576040517f08c379a00000000000000000000000000000000000000000000000000000000081526004016113e290613fd6565b60405180910390fd5b505b61142833847f00000000000000000000000000000000000000000000000000000000000000006040518060200160405280600081525061221b565b600160076000858152602001908152602001600020600082825461144c9190614414565b92505081905550600860003373ffffffffffffffffffffffffffffffffffffffff1673ffffffffffffffffffffffffffffffffffffffff1681526020019081526020016000206006600085815260200190815260200160002090806001815401808255809150506001900390600052602060002090600402016000909190919091506000820160009054906101000a900460ff168160000160006101000a81548160ff0219169083151502179055506000820160019054906101000a900460ff168160000160016101000a81548160ff0219169083151502179055506001820154816001015560028201548160020155600382018160030190805461155090614578565b61155b929190612f2c565b505050505050565b61157561156e611dd1565b83836123e2565b5050565b60076020528060005260406000206000915090505481565b611599611dd1565b73ffffffffffffffffffffffffffffffffffffffff166115b7610ff7565b73ffffffffffffffffffffffffffffffffffffffff161461160d576040517f08c379a000000000000000000000000000000000000000000000000000000000815260040161160490614116565b60405180910390fd5b80600560006101000a81548173ffffffffffffffffffffffffffffffffffffffff021916908373ffffffffffffffffffffffffffffffffffffffff16021790555050565b6060600860008373ffffffffffffffffffffffffffffffffffffffff1673ffffffffffffffffffffffffffffffffffffffff168152602001908152602001600020805480602002602001604051908101604052809291908181526020016000905b828210156117c057838290600052602060002090600402016040518060a00160405290816000820160009054906101000a900460ff161515151581526020016000820160019054906101000a900460ff16151515158152602001600182015481526020016002820154815260200160038201805461172f90614578565b80601f016020809104026020016040519081016040528092919081815260200182805461175b90614578565b80156117a85780601f1061177d576101008083540402835291602001916117a8565b820191906000526020600020905b81548152906001019060200180831161178b57829003601f168201915b505050505081525050815260200190600101906116b2565b505050509050919050565b6000600160008473ffffffffffffffffffffffffffffffffffffffff1673ffffffffffffffffffffffffffffffffffffffff16815260200190815260200160002060008373ffffffffffffffffffffffffffffffffffffffff1673ffffffffffffffffffffffffffffffffffffffff16815260200190815260200160002060009054906101000a900460ff16905092915050565b7f000000000000000000000000000000000000000000000000000000000000000081565b8260008111801561189d57506118996004612147565b8111155b6118dc576040517f08c379a00000000000000000000000000000000000000000000000000000000081526004016118d390614216565b60405180910390fd5b6006600085815260200190815260200160002060000160019054906101000a900460ff1661193f576040517f08c379a0000000000000000000000000000000000000000000000000000000008152600401611936906140f6565b60405180910390fd5b61194c868686868661254f565b505050505050565b61195c611dd1565b73ffffffffffffffffffffffffffffffffffffffff1661197a610ff7565b73ffffffffffffffffffffffffffffffffffffffff16146119d0576040517f08c379a00000000000000000000000000000000000000000000000000000000081526004016119c790614116565b60405180910390fd5b600073ffffffffffffffffffffffffffffffffffffffff168173ffffffffffffffffffffffffffffffffffffffff161415611a40576040517f08c379a0000000000000000000000000000000000000000000000000000000008152600401611a3790614016565b60405180910390fd5b611a4981612155565b50565b611a54611dd1565b73ffffffffffffffffffffffffffffffffffffffff16611a72610ff7565b73ffffffffffffffffffffffffffffffffffffffff1614611ac8576040517f08c379a0000000000000000000000000000000000000000000000000000000008152600401611abf90614116565b60405180910390fd5b82600081118015611ae25750611ade6004612147565b8111155b611b21576040517f08c379a0000000000000000000000000000000000000000000000000000000008152600401611b1890614216565b60405180910390fd5b826006600086815260200190815260200160002060000160006101000a81548160ff02191690831515021790555081600660008681526020019081526020016000206003019080519060200190611b79929190612fb9565b50837fd962c3d61342628813883ef00841f4e578f2e4122cd35d7caf2905f530c9168084604051611baa9190613ebb565b60405180910390a250505050565b81600081118015611bd25750611bce6004612147565b8111155b611c11576040517f08c379a0000000000000000000000000000000000000000000000000000000008152600401611c0890614216565b60405180910390fd5b81836000611c1f838361046f565b11611c5f576040517f08c379a0000000000000000000000000000000000000000000000000000000008152600401611c5690614176565b60405180910390fd5b611c67610ff7565b73ffffffffffffffffffffffffffffffffffffffff163373ffffffffffffffffffffffffffffffffffffffff161480611ccb57508373ffffffffffffffffffffffffffffffffffffffff163373ffffffffffffffffffffffffffffffffffffffff16145b611d0a576040517f08c379a0000000000000000000000000000000000000000000000000000000008152600401611d0190614136565b60405180910390fd5b6001600760008781526020019081526020016000206000828254611d2e919061446a565b92505081905550611d6084867f00000000000000000000000000000000000000000000000000000000000000006127eb565b5050505050565b60007f01ffc9a7000000000000000000000000000000000000000000000000000000007bffffffffffffffffffffffffffffffffffffffffffffffffffffffff1916827bffffffffffffffffffffffffffffffffffffffffffffffffffffffff1916149050919050565b600033905090565b8151835114611e1d576040517f08c379a0000000000000000000000000000000000000000000000000000000008152600401611e14906141d6565b60405180910390fd5b600073ffffffffffffffffffffffffffffffffffffffff168473ffffffffffffffffffffffffffffffffffffffff161415611e8d576040517f08c379a0000000000000000000000000000000000000000000000000000000008152600401611e8490614076565b60405180910390fd5b6000611e97611dd1565b9050611ea7818787878787612a32565b60005b84518110156120a4576000858281518110611eee577f4e487b7100000000000000000000000000000000000000000000000000000000600052603260045260246000fd5b602002602001015190506000858381518110611f33577f4e487b7100000000000000000000000000000000000000000000000000000000600052603260045260246000fd5b60200260200101519050600080600084815260200190815260200160002060008b73ffffffffffffffffffffffffffffffffffffffff1673ffffffffffffffffffffffffffffffffffffffff16815260200190815260200160002054905081811015611fd4576040517f08c379a0000000000000000000000000000000000000000000000000000000008152600401611fcb906140d6565b60405180910390fd5b81810360008085815260200190815260200160002060008c73ffffffffffffffffffffffffffffffffffffffff1673ffffffffffffffffffffffffffffffffffffffff168152602001908152602001600020819055508160008085815260200190815260200160002060008b73ffffffffffffffffffffffffffffffffffffffff1673ffffffffffffffffffffffffffffffffffffffff16815260200190815260200160002060008282546120899190614414565b925050819055505050508061209d906145db565b9050611eaa565b508473ffffffffffffffffffffffffffffffffffffffff168673ffffffffffffffffffffffffffffffffffffffff168273ffffffffffffffffffffffffffffffffffffffff167f4a39dc06d4c0dbc64b70af90fd698a233a518aa5d07e595d983b8c0526c8f7fb878760405161211b929190613e84565b60405180910390a4612131818787878787612a3a565b61213f818787878787612a42565b505050505050565b600081600001549050919050565b6000600360009054906101000a900473ffffffffffffffffffffffffffffffffffffffff16905081600360006101000a81548173ffffffffffffffffffffffffffffffffffffffff021916908373ffffffffffffffffffffffffffffffffffffffff1602179055508173ffffffffffffffffffffffffffffffffffffffff168173ffffffffffffffffffffffffffffffffffffffff167f8be0079c531659141344cd1fd0a4f28419497f9722a3daafe3b4186f6b6457e060405160405180910390a35050565b600073ffffffffffffffffffffffffffffffffffffffff168473ffffffffffffffffffffffffffffffffffffffff16141561228b576040517f08c379a0000000000000000000000000000000000000000000000000000000008152600401612282906141f6565b60405180910390fd5b6000612295611dd1565b905060006122a285612c29565b905060006122af85612c29565b90506122c083600089858589612a32565b8460008088815260200190815260200160002060008973ffffffffffffffffffffffffffffffffffffffff1673ffffffffffffffffffffffffffffffffffffffff168152602001908152602001600020600082825461231f9190614414565b925050819055508673ffffffffffffffffffffffffffffffffffffffff16600073ffffffffffffffffffffffffffffffffffffffff168473ffffffffffffffffffffffffffffffffffffffff167fc3d58168c5ae7397731d063d5bbf3d657854427343f4c083240f7aacaa2d0f62898960405161239d929190614251565b60405180910390a46123b483600089858589612a3a565b6123c383600089898989612cef565b50505050505050565b6001816000016000828254019250508190555050565b8173ffffffffffffffffffffffffffffffffffffffff168373ffffffffffffffffffffffffffffffffffffffff161415612451576040517f08c379a000000000000000000000000000000000000000000000000000000000815260040161244890614196565b60405180910390fd5b80600160008573ffffffffffffffffffffffffffffffffffffffff1673ffffffffffffffffffffffffffffffffffffffff16815260200190815260200160002060008473ffffffffffffffffffffffffffffffffffffffff1673ffffffffffffffffffffffffffffffffffffffff16815260200190815260200160002060006101000a81548160ff0219169083151502179055508173ffffffffffffffffffffffffffffffffffffffff168373ffffffffffffffffffffffffffffffffffffffff167f17307eab39ab6107e8899845ad3d59bd9653f200f220920489ca2b5937696c31836040516125429190613ebb565b60405180910390a3505050565b600073ffffffffffffffffffffffffffffffffffffffff168473ffffffffffffffffffffffffffffffffffffffff1614156125bf576040517f08c379a00000000000000000000000000000000000000000000000000000000081526004016125b690614076565b60405180910390fd5b60006125c9611dd1565b905060006125d685612c29565b905060006125e385612c29565b90506125f3838989858589612a32565b600080600088815260200190815260200160002060008a73ffffffffffffffffffffffffffffffffffffffff1673ffffffffffffffffffffffffffffffffffffffff1681526020019081526020016000205490508581101561268a576040517f08c379a0000000000000000000000000000000000000000000000000000000008152600401612681906140d6565b60405180910390fd5b85810360008089815260200190815260200160002060008b73ffffffffffffffffffffffffffffffffffffffff1673ffffffffffffffffffffffffffffffffffffffff168152602001908152602001600020819055508560008089815260200190815260200160002060008a73ffffffffffffffffffffffffffffffffffffffff1673ffffffffffffffffffffffffffffffffffffffff168152602001908152602001600020600082825461273f9190614414565b925050819055508773ffffffffffffffffffffffffffffffffffffffff168973ffffffffffffffffffffffffffffffffffffffff168573ffffffffffffffffffffffffffffffffffffffff167fc3d58168c5ae7397731d063d5bbf3d657854427343f4c083240f7aacaa2d0f628a8a6040516127bc929190614251565b60405180910390a46127d2848a8a86868a612a3a565b6127e0848a8a8a8a8a612cef565b505050505050505050565b600073ffffffffffffffffffffffffffffffffffffffff168373ffffffffffffffffffffffffffffffffffffffff16141561285b576040517f08c379a0000000000000000000000000000000000000000000000000000000008152600401612852906140b6565b60405180910390fd5b6000612865611dd1565b9050600061287284612c29565b9050600061287f84612c29565b905061289f83876000858560405180602001604052806000815250612a32565b600080600087815260200190815260200160002060008873ffffffffffffffffffffffffffffffffffffffff1673ffffffffffffffffffffffffffffffffffffffff16815260200190815260200160002054905084811015612936576040517f08c379a000000000000000000000000000000000000000000000000000000000815260040161292d90614036565b60405180910390fd5b84810360008088815260200190815260200160002060008973ffffffffffffffffffffffffffffffffffffffff1673ffffffffffffffffffffffffffffffffffffffff16815260200190815260200160002081905550600073ffffffffffffffffffffffffffffffffffffffff168773ffffffffffffffffffffffffffffffffffffffff168573ffffffffffffffffffffffffffffffffffffffff167fc3d58168c5ae7397731d063d5bbf3d657854427343f4c083240f7aacaa2d0f628989604051612a03929190614251565b60405180910390a4612a2984886000868660405180602001604052806000815250612a3a565b50505050505050565b505050505050565b505050505050565b612a618473ffffffffffffffffffffffffffffffffffffffff16612ed6565b15612c21578373ffffffffffffffffffffffffffffffffffffffff1663bc197c8187878686866040518663ffffffff1660e01b8152600401612aa7959493929190613d47565b602060405180830381600087803b158015612ac157600080fd5b505af1925050508015612af257506040513d601f19601f82011682018060405250810190612aef9190613674565b60015b612b9857612afe6146b1565b806308c379a01415612b5b5750612b13614c3c565b80612b1e5750612b5d565b806040517f08c379a0000000000000000000000000000000000000000000000000000000008152600401612b529190613f74565b60405180910390fd5b505b6040517f08c379a0000000000000000000000000000000000000000000000000000000008152600401612b8f90613f96565b60405180910390fd5b63bc197c8160e01b7bffffffffffffffffffffffffffffffffffffffffffffffffffffffff1916817bffffffffffffffffffffffffffffffffffffffffffffffffffffffff191614612c1f576040517f08c379a0000000000000000000000000000000000000000000000000000000008152600401612c1690613fb6565b60405180910390fd5b505b505050505050565b60606000600167ffffffffffffffff811115612c6e577f4e487b7100000000000000000000000000000000000000000000000000000000600052604160045260246000fd5b604051908082528060200260200182016040528015612c9c5781602001602082028036833780820191505090505b5090508281600081518110612cda577f4e487b7100000000000000000000000000000000000000000000000000000000600052603260045260246000fd5b60200260200101818152505080915050919050565b612d0e8473ffffffffffffffffffffffffffffffffffffffff16612ed6565b15612ece578373ffffffffffffffffffffffffffffffffffffffff1663f23a6e6187878686866040518663ffffffff1660e01b8152600401612d54959493929190613de6565b602060405180830381600087803b158015612d6e57600080fd5b505af1925050508015612d9f57506040513d601f19601f82011682018060405250810190612d9c9190613674565b60015b612e4557612dab6146b1565b806308c379a01415612e085750612dc0614c3c565b80612dcb5750612e0a565b806040517f08c379a0000000000000000000000000000000000000000000000000000000008152600401612dff9190613f74565b60405180910390fd5b505b6040517f08c379a0000000000000000000000000000000000000000000000000000000008152600401612e3c90613f96565b60405180910390fd5b63f23a6e6160e01b7bffffffffffffffffffffffffffffffffffffffffffffffffffffffff1916817bffffffffffffffffffffffffffffffffffffffffffffffffffffffff191614612ecc576040517f08c379a0000000000000000000000000000000000000000000000000000000008152600401612ec390613fb6565b60405180910390fd5b505b505050505050565b6000808273ffffffffffffffffffffffffffffffffffffffff163b119050919050565b6040518060a001604052806000151581526020016000151581526020016000815260200160008152602001606081525090565b828054612f3890614578565b90600052602060002090601f016020900481019282612f5a5760008555612fa8565b82601f10612f6b5780548555612fa8565b82800160010185558215612fa857600052602060002091601f016020900482015b82811115612fa7578254825591600101919060010190612f8c565b5b509050612fb5919061303f565b5090565b828054612fc590614578565b90600052602060002090601f016020900481019282612fe7576000855561302e565b82601f1061300057805160ff191683800117855561302e565b8280016001018555821561302e579182015b8281111561302d578251825591602001919060010190613012565b5b50905061303b919061303f565b5090565b5b80821115613058576000816000905550600101613040565b5090565b600061306f61306a8461429f565b61427a565b9050808382526020820190508285602086028201111561308e57600080fd5b60005b858110156130be57816130a488826131b0565b845260208401935060208301925050600181019050613091565b5050509392505050565b60006130db6130d6846142cb565b61427a565b905080838252602082019050828560208602820111156130fa57600080fd5b60005b8581101561312a57816131108882613361565b8452602084019350602083019250506001810190506130fd565b5050509392505050565b6000613147613142846142f7565b61427a565b90508281526020810184848401111561315f57600080fd5b61316a848285614536565b509392505050565b600061318561318084614328565b61427a565b90508281526020810184848401111561319d57600080fd5b6131a8848285614536565b509392505050565b6000813590506131bf81614cd2565b92915050565b600082601f8301126131d657600080fd5b81356131e684826020860161305c565b91505092915050565b600082601f83011261320057600080fd5b81356132108482602086016130c8565b91505092915050565b60008135905061322881614ce9565b92915050565b60008151905061323d81614ce9565b92915050565b60008135905061325281614d00565b92915050565b60008151905061326781614d00565b92915050565b600082601f83011261327e57600080fd5b813561328e848260208601613134565b91505092915050565b600082601f8301126132a857600080fd5b81356132b8848260208601613172565b91505092915050565b600060a082840312156132d357600080fd5b6132dd60a061427a565b905060006132ed84828501613219565b600083015250602061330184828501613219565b602083015250604061331584828501613361565b604083015250606061332984828501613361565b606083015250608082013567ffffffffffffffff81111561334957600080fd5b61335584828501613297565b60808301525092915050565b60008135905061337081614d17565b92915050565b60008151905061338581614d17565b92915050565b60006020828403121561339d57600080fd5b60006133ab848285016131b0565b91505092915050565b600080604083850312156133c757600080fd5b60006133d5858286016131b0565b92505060206133e6858286016131b0565b9150509250929050565b600080600080600060a0868803121561340857600080fd5b6000613416888289016131b0565b9550506020613427888289016131b0565b945050604086013567ffffffffffffffff81111561344457600080fd5b613450888289016131ef565b935050606086013567ffffffffffffffff81111561346d57600080fd5b613479888289016131ef565b925050608086013567ffffffffffffffff81111561349657600080fd5b6134a28882890161326d565b9150509295509295909350565b600080600080600060a086880312156134c757600080fd5b60006134d5888289016131b0565b95505060206134e6888289016131b0565b94505060406134f788828901613361565b935050606061350888828901613361565b925050608086013567ffffffffffffffff81111561352557600080fd5b6135318882890161326d565b9150509295509295909350565b6000806040838503121561355157600080fd5b600061355f858286016131b0565b925050602061357085828601613219565b9150509250929050565b6000806040838503121561358d57600080fd5b600061359b858286016131b0565b92505060206135ac85828601613361565b9150509250929050565b600080604083850312156135c957600080fd5b600083013567ffffffffffffffff8111156135e357600080fd5b6135ef858286016131c5565b925050602083013567ffffffffffffffff81111561360c57600080fd5b613618858286016131ef565b9150509250929050565b60006020828403121561363457600080fd5b60006136428482850161322e565b91505092915050565b60006020828403121561365d57600080fd5b600061366b84828501613243565b91505092915050565b60006020828403121561368657600080fd5b600061369484828501613258565b91505092915050565b6000602082840312156136af57600080fd5b600082013567ffffffffffffffff8111156136c957600080fd5b6136d5848285016132c1565b91505092915050565b6000602082840312156136f057600080fd5b60006136fe84828501613361565b91505092915050565b60006020828403121561371957600080fd5b600061372784828501613376565b91505092915050565b6000806040838503121561374357600080fd5b600061375185828601613361565b9250506020613762858286016131b0565b9150509250929050565b60008060006060848603121561378157600080fd5b600061378f86828701613361565b93505060206137a086828701613219565b925050604084013567ffffffffffffffff8111156137bd57600080fd5b6137c986828701613297565b9150509250925092565b60006137df8383613c98565b905092915050565b60006137f38383613d0e565b60208301905092915050565b6138088161449e565b82525050565b600061381982614379565b61382381856143bf565b93508360208202850161383585614359565b8060005b85811015613871578484038952815161385285826137d3565b945061385d836143a5565b925060208a01995050600181019050613839565b50829750879550505050505092915050565b600061388e82614384565b61389881856143d0565b93506138a383614369565b8060005b838110156138d45781516138bb88826137e7565b97506138c6836143b2565b9250506001810190506138a7565b5085935050505092915050565b6138ea816144b0565b82525050565b6138f9816144b0565b82525050565b600061390a8261438f565b61391481856143e1565b9350613924818560208601614545565b61392d816146d3565b840191505092915050565b61394181614512565b82525050565b60006139528261439a565b61395c81856143f2565b935061396c818560208601614545565b613975816146d3565b840191505092915050565b600061398b8261439a565b6139958185614403565b93506139a5818560208601614545565b6139ae816146d3565b840191505092915050565b60006139c6603483614403565b91506139d1826146f1565b604082019050919050565b60006139e9602883614403565b91506139f482614740565b604082019050919050565b6000613a0c600983614403565b9150613a178261478f565b602082019050919050565b6000613a2f602b83614403565b9150613a3a826147b8565b604082019050919050565b6000613a52602683614403565b9150613a5d82614807565b604082019050919050565b6000613a75602483614403565b9150613a8082614856565b604082019050919050565b6000613a98601683614403565b9150613aa3826148a5565b602082019050919050565b6000613abb602583614403565b9150613ac6826148ce565b604082019050919050565b6000613ade603283614403565b9150613ae98261491d565b604082019050919050565b6000613b01602383614403565b9150613b0c8261496c565b604082019050919050565b6000613b24602a83614403565b9150613b2f826149bb565b604082019050919050565b6000613b47601283614403565b9150613b5282614a0a565b602082019050919050565b6000613b6a602083614403565b9150613b7582614a33565b602082019050919050565b6000613b8d601283614403565b9150613b9882614a5c565b602082019050919050565b6000613bb0601483614403565b9150613bbb82614a85565b602082019050919050565b6000613bd3601383614403565b9150613bde82614aae565b602082019050919050565b6000613bf6602983614403565b9150613c0182614ad7565b604082019050919050565b6000613c19602983614403565b9150613c2482614b26565b604082019050919050565b6000613c3c602883614403565b9150613c4782614b75565b604082019050919050565b6000613c5f602183614403565b9150613c6a82614bc4565b604082019050919050565b6000613c82601083614403565b9150613c8d82614c13565b602082019050919050565b600060a083016000830151613cb060008601826138e1565b506020830151613cc360208601826138e1565b506040830151613cd66040860182613d0e565b506060830151613ce96060860182613d0e565b5060808301518482036080860152613d018282613947565b9150508091505092915050565b613d1781614508565b82525050565b613d2681614508565b82525050565b6000602082019050613d4160008301846137ff565b92915050565b600060a082019050613d5c60008301886137ff565b613d6960208301876137ff565b8181036040830152613d7b8186613883565b90508181036060830152613d8f8185613883565b90508181036080830152613da381846138ff565b90509695505050505050565b6000606082019050613dc460008301866137ff565b613dd160208301856137ff565b613dde6040830184613d1d565b949350505050565b600060a082019050613dfb60008301886137ff565b613e0860208301876137ff565b613e156040830186613d1d565b613e226060830185613d1d565b8181036080830152613e3481846138ff565b90509695505050505050565b60006020820190508181036000830152613e5a818461380e565b905092915050565b60006020820190508181036000830152613e7c8184613883565b905092915050565b60006040820190508181036000830152613e9e8185613883565b90508181036020830152613eb28184613883565b90509392505050565b6000602082019050613ed060008301846138f0565b92915050565b600060a082019050613eeb60008301886138f0565b613ef860208301876138f0565b613f056040830186613d1d565b613f126060830185613d1d565b8181036080830152613f248184613980565b90509695505050505050565b6000604082019050613f4560008301856138f0565b613f526020830184613d1d565b9392505050565b6000602082019050613f6e6000830184613938565b92915050565b60006020820190508181036000830152613f8e8184613980565b905092915050565b60006020820190508181036000830152613faf816139b9565b9050919050565b60006020820190508181036000830152613fcf816139dc565b9050919050565b60006020820190508181036000830152613fef816139ff565b9050919050565b6000602082019050818103600083015261400f81613a22565b9050919050565b6000602082019050818103600083015261402f81613a45565b9050919050565b6000602082019050818103600083015261404f81613a68565b9050919050565b6000602082019050818103600083015261406f81613a8b565b9050919050565b6000602082019050818103600083015261408f81613aae565b9050919050565b600060208201905081810360008301526140af81613ad1565b9050919050565b600060208201905081810360008301526140cf81613af4565b9050919050565b600060208201905081810360008301526140ef81613b17565b9050919050565b6000602082019050818103600083015261410f81613b3a565b9050919050565b6000602082019050818103600083015261412f81613b5d565b9050919050565b6000602082019050818103600083015261414f81613b80565b9050919050565b6000602082019050818103600083015261416f81613ba3565b9050919050565b6000602082019050818103600083015261418f81613bc6565b9050919050565b600060208201905081810360008301526141af81613be9565b9050919050565b600060208201905081810360008301526141cf81613c0c565b9050919050565b600060208201905081810360008301526141ef81613c2f565b9050919050565b6000602082019050818103600083015261420f81613c52565b9050919050565b6000602082019050818103600083015261422f81613c75565b9050919050565b600060208201905061424b6000830184613d1d565b92915050565b60006040820190506142666000830185613d1d565b6142736020830184613d1d565b9392505050565b6000614284614295565b905061429082826145aa565b919050565b6000604051905090565b600067ffffffffffffffff8211156142ba576142b9614682565b5b602082029050602081019050919050565b600067ffffffffffffffff8211156142e6576142e5614682565b5b602082029050602081019050919050565b600067ffffffffffffffff82111561431257614311614682565b5b61431b826146d3565b9050602081019050919050565b600067ffffffffffffffff82111561434357614342614682565b5b61434c826146d3565b9050602081019050919050565b6000819050602082019050919050565b6000819050602082019050919050565b600081519050919050565b600081519050919050565b600081519050919050565b600081519050919050565b6000602082019050919050565b6000602082019050919050565b600082825260208201905092915050565b600082825260208201905092915050565b600082825260208201905092915050565b600082825260208201905092915050565b600082825260208201905092915050565b600061441f82614508565b915061442a83614508565b9250827fffffffffffffffffffffffffffffffffffffffffffffffffffffffffffffffff0382111561445f5761445e614624565b5b828201905092915050565b600061447582614508565b915061448083614508565b92508282101561449357614492614624565b5b828203905092915050565b60006144a9826144e8565b9050919050565b60008115159050919050565b60007fffffffff0000000000000000000000000000000000000000000000000000000082169050919050565b600073ffffffffffffffffffffffffffffffffffffffff82169050919050565b6000819050919050565b600061451d82614524565b9050919050565b600061452f826144e8565b9050919050565b82818337600083830152505050565b60005b83811015614563578082015181840152602081019050614548565b83811115614572576000848401525b50505050565b6000600282049050600182168061459057607f821691505b602082108114156145a4576145a3614653565b5b50919050565b6145b3826146d3565b810181811067ffffffffffffffff821117156145d2576145d1614682565b5b80604052505050565b60006145e682614508565b91507fffffffffffffffffffffffffffffffffffffffffffffffffffffffffffffffff82141561461957614618614624565b5b600182019050919050565b7f4e487b7100000000000000000000000000000000000000000000000000000000600052601160045260246000fd5b7f4e487b7100000000000000000000000000000000000000000000000000000000600052602260045260246000fd5b7f4e487b7100000000000000000000000000000000000000000000000000000000600052604160045260246000fd5b600060033d11156146d05760046000803e6146cd6000516146e4565b90505b90565b6000601f19601f8301169050919050565b60008160e01c9050919050565b7f455243313135353a207472616e7366657220746f206e6f6e204552433131353560008201527f526563656976657220696d706c656d656e746572000000000000000000000000602082015250565b7f455243313135353a204552433131353552656365697665722072656a6563746560008201527f6420746f6b656e73000000000000000000000000000000000000000000000000602082015250565b7f5458204641494c45440000000000000000000000000000000000000000000000600082015250565b7f455243313135353a2062616c616e636520717565727920666f7220746865207a60008201527f65726f2061646472657373000000000000000000000000000000000000000000602082015250565b7f4f776e61626c653a206e6577206f776e657220697320746865207a65726f206160008201527f6464726573730000000000000000000000000000000000000000000000000000602082015250565b7f455243313135353a206275726e20616d6f756e7420657863656564732062616c60008201527f616e636500000000000000000000000000000000000000000000000000000000602082015250565b7f496e76616c69643a2045786365656420537570706c7900000000000000000000600082015250565b7f455243313135353a207472616e7366657220746f20746865207a65726f20616460008201527f6472657373000000000000000000000000000000000000000000000000000000602082015250565b7f455243313135353a207472616e736665722063616c6c6572206973206e6f742060008201527f6f776e6572206e6f7220617070726f7665640000000000000000000000000000602082015250565b7f455243313135353a206275726e2066726f6d20746865207a65726f206164647260008201527f6573730000000000000000000000000000000000000000000000000000000000602082015250565b7f455243313135353a20696e73756666696369656e742062616c616e636520666f60008201527f72207472616e7366657200000000000000000000000000000000000000000000602082015250565b7f5452414e5346455220464f5242494444454e0000000000000000000000000000600082015250565b7f4f776e61626c653a2063616c6c6572206973206e6f7420746865206f776e6572600082015250565b7f4e4f54204841564520415554484f524954590000000000000000000000000000600082015250565b7f494e53554646494349454e542042414c414e4345000000000000000000000000600082015250565b7f496e76616c69643a204e4f5420484f4c44455200000000000000000000000000600082015250565b7f455243313135353a2073657474696e6720617070726f76616c2073746174757360008201527f20666f722073656c660000000000000000000000000000000000000000000000602082015250565b7f455243313135353a206163636f756e747320616e6420696473206c656e67746860008201527f206d69736d617463680000000000000000000000000000000000000000000000602082015250565b7f455243313135353a2069647320616e6420616d6f756e7473206c656e6774682060008201527f6d69736d61746368000000000000000000000000000000000000000000000000602082015250565b7f455243313135353a206d696e7420746f20746865207a65726f2061646472657360008201527f7300000000000000000000000000000000000000000000000000000000000000602082015250565b7f4261646765204e6f742045786973747300000000000000000000000000000000600082015250565b600060443d1015614c4c57614ccf565b614c54614295565b60043d036004823e80513d602482011167ffffffffffffffff82111715614c7c575050614ccf565b808201805167ffffffffffffffff811115614c9a5750505050614ccf565b80602083010160043d038501811115614cb7575050505050614ccf565b614cc6826020018501866145aa565b82955050505050505b90565b614cdb8161449e565b8114614ce657600080fd5b50565b614cf2816144b0565b8114614cfd57600080fd5b50565b614d09816144bc565b8114614d1457600080fd5b50565b614d2081614508565b8114614d2b57600080fd5b5056fea2646970667358221220eda55192babc06961d1a5f228b3a20f7163a32ccd5b66a913e5019f7bead9a8564736f6c63430008040033",
  "linkReferences": {},
  "deployedLinkReferences": {}
}