{
  "_format": "hh-sol-artifact-1",
  "contractName": "HenkakuBadge",
  "sourceName": "contracts/HenkakuBadge.sol",
  "abi": [
    {
      "inputs": [
        {
          "internalType": "address",
          "name": "_erc20",
          "type": "address"
        },
        {
          "internalType": "address",
          "name": "_fundsAddress",
          "type": "address"
        }
      ],
      "stateMutability": "nonpayable",
      "type": "constructor"
    },
    {
      "anonymous": false,
      "inputs": [
        {
          "indexed": true,
          "internalType": "address",
          "name": "account",
          "type": "address"
        },
        {
          "indexed": true,
          "internalType": "address",
          "name": "operator",
          "type": "address"
        },
        {
          "indexed": false,
          "internalType": "bool",
          "name": "approved",
          "type": "bool"
        }
      ],
      "name": "ApprovalForAll",
      "type": "event"
    },
    {
      "anonymous": false,
      "inputs": [
        {
          "indexed": true,
          "internalType": "uint256",
          "name": "id",
          "type": "uint256"
        },
        {
          "indexed": true,
          "internalType": "address",
          "name": "holder",
          "type": "address"
        }
      ],
      "name": "BurnBadge",
      "type": "event"
    },
    {
      "anonymous": false,
      "inputs": [
        {
          "indexed": true,
          "internalType": "address",
          "name": "minter",
          "type": "address"
        },
        {
          "indexed": true,
          "internalType": "uint256",
          "name": "tokenId",
          "type": "uint256"
        }
      ],
      "name": "Mint",
      "type": "event"
    },
    {
      "anonymous": false,
      "inputs": [
        {
          "indexed": true,
          "internalType": "address",
          "name": "minter",
          "type": "address"
        },
        {
          "indexed": true,
          "internalType": "address",
          "name": "holder",
          "type": "address"
        },
        {
          "indexed": true,
          "internalType": "uint256",
          "name": "tokenId",
          "type": "uint256"
        }
      ],
      "name": "MintByAdmin",
      "type": "event"
    },
    {
      "anonymous": false,
      "inputs": [
        {
          "indexed": true,
          "internalType": "uint256",
          "name": "id",
          "type": "uint256"
        },
        {
          "indexed": false,
          "internalType": "bool",
          "name": "mintable",
          "type": "bool"
        },
        {
          "indexed": false,
          "internalType": "uint256",
          "name": "amount",
          "type": "uint256"
        }
      ],
      "name": "NewBadge",
      "type": "event"
    },
    {
      "anonymous": false,
      "inputs": [
        {
          "indexed": true,
          "internalType": "address",
          "name": "previousOwner",
          "type": "address"
        },
        {
          "indexed": true,
          "internalType": "address",
          "name": "newOwner",
          "type": "address"
        }
      ],
      "name": "OwnershipTransferred",
      "type": "event"
    },
    {
      "anonymous": false,
      "inputs": [
        {
          "indexed": true,
          "internalType": "address",
          "name": "operator",
          "type": "address"
        },
        {
          "indexed": true,
          "internalType": "address",
          "name": "from",
          "type": "address"
        },
        {
          "indexed": true,
          "internalType": "address",
          "name": "to",
          "type": "address"
        },
        {
          "indexed": false,
          "internalType": "uint256[]",
          "name": "ids",
          "type": "uint256[]"
        },
        {
          "indexed": false,
          "internalType": "uint256[]",
          "name": "values",
          "type": "uint256[]"
        }
      ],
      "name": "TransferBatch",
      "type": "event"
    },
    {
      "anonymous": false,
      "inputs": [
        {
          "indexed": true,
          "internalType": "address",
          "name": "operator",
          "type": "address"
        },
        {
          "indexed": true,
          "internalType": "address",
          "name": "from",
          "type": "address"
        },
        {
          "indexed": true,
          "internalType": "address",
          "name": "to",
          "type": "address"
        },
        {
          "indexed": false,
          "internalType": "uint256",
          "name": "id",
          "type": "uint256"
        },
        {
          "indexed": false,
          "internalType": "uint256",
          "name": "value",
          "type": "uint256"
        }
      ],
      "name": "TransferSingle",
      "type": "event"
    },
    {
      "anonymous": false,
      "inputs": [
        {
          "indexed": false,
          "internalType": "string",
          "name": "value",
          "type": "string"
        },
        {
          "indexed": true,
          "internalType": "uint256",
          "name": "id",
          "type": "uint256"
        }
      ],
      "name": "URI",
      "type": "event"
    },
    {
      "anonymous": false,
      "inputs": [
        {
          "indexed": true,
          "internalType": "uint256",
          "name": "id",
          "type": "uint256"
        },
        {
          "indexed": false,
          "internalType": "bool",
          "name": "mintable",
          "type": "bool"
        }
      ],
      "name": "UpdateBadge",
      "type": "event"
    },
    {
      "anonymous": false,
      "inputs": [
        {
          "indexed": true,
          "internalType": "address",
          "name": "to",
          "type": "address"
        },
        {
          "indexed": false,
          "internalType": "address",
          "name": "token",
          "type": "address"
        },
        {
          "indexed": false,
          "internalType": "uint256",
          "name": "amount",
          "type": "uint256"
        }
      ],
      "name": "WithDraw",
      "type": "event"
    },
    {
      "inputs": [
        {
          "internalType": "uint256",
          "name": "",
          "type": "uint256"
        }
      ],
      "name": "badges",
      "outputs": [
        {
          "internalType": "bool",
          "name": "mintable",
          "type": "bool"
        },
        {
          "internalType": "bool",
          "name": "transferable",
          "type": "bool"
        },
        {
          "internalType": "uint256",
          "name": "amount",
          "type": "uint256"
        },
        {
          "internalType": "uint256",
          "name": "maxSupply",
          "type": "uint256"
        },
        {
          "internalType": "string",
          "name": "tokenURI",
          "type": "string"
        },
        {
          "internalType": "uint256",
          "name": "maxMintPerWallet",
          "type": "uint256"
        }
      ],
      "stateMutability": "view",
      "type": "function"
    },
    {
      "inputs": [
        {
          "internalType": "address",
          "name": "_of",
          "type": "address"
        }
      ],
      "name": "badgesOf",
      "outputs": [
        {
          "components": [
            {
              "internalType": "bool",
              "name": "mintable",
              "type": "bool"
            },
            {
              "internalType": "bool",
              "name": "transferable",
              "type": "bool"
            },
            {
              "internalType": "uint256",
              "name": "amount",
              "type": "uint256"
            },
            {
              "internalType": "uint256",
              "name": "maxSupply",
              "type": "uint256"
            },
            {
              "internalType": "string",
              "name": "tokenURI",
              "type": "string"
            },
            {
              "internalType": "uint256",
              "name": "maxMintPerWallet",
              "type": "uint256"
            }
          ],
          "internalType": "struct HenkakuBadge.Badge[]",
          "name": "",
          "type": "tuple[]"
        }
      ],
      "stateMutability": "view",
      "type": "function"
    },
    {
      "inputs": [
        {
          "internalType": "address",
          "name": "account",
          "type": "address"
        },
        {
          "internalType": "uint256",
          "name": "id",
          "type": "uint256"
        }
      ],
      "name": "balanceOf",
      "outputs": [
        {
          "internalType": "uint256",
          "name": "",
          "type": "uint256"
        }
      ],
      "stateMutability": "view",
      "type": "function"
    },
    {
      "inputs": [
        {
          "internalType": "address[]",
          "name": "accounts",
          "type": "address[]"
        },
        {
          "internalType": "uint256[]",
          "name": "ids",
          "type": "uint256[]"
        }
      ],
      "name": "balanceOfBatch",
      "outputs": [
        {
          "internalType": "uint256[]",
          "name": "",
          "type": "uint256[]"
        }
      ],
      "stateMutability": "view",
      "type": "function"
    },
    {
      "inputs": [
        {
          "internalType": "uint256",
          "name": "_tokenId",
          "type": "uint256"
        },
        {
          "internalType": "address",
          "name": "_of",
          "type": "address"
        }
      ],
      "name": "burn",
      "outputs": [],
      "stateMutability": "nonpayable",
      "type": "function"
    },
    {
      "inputs": [
        {
          "components": [
            {
              "internalType": "bool",
              "name": "mintable",
              "type": "bool"
            },
            {
              "internalType": "bool",
              "name": "transferable",
              "type": "bool"
            },
            {
              "internalType": "uint256",
              "name": "amount",
              "type": "uint256"
            },
            {
              "internalType": "uint256",
              "name": "maxSupply",
              "type": "uint256"
            },
            {
              "internalType": "string",
              "name": "tokenURI",
              "type": "string"
            },
            {
              "internalType": "uint256",
              "name": "maxMintPerWallet",
              "type": "uint256"
            }
          ],
          "internalType": "struct HenkakuBadge.Badge",
          "name": "_badge",
          "type": "tuple"
        }
      ],
      "name": "createBadge",
      "outputs": [],
      "stateMutability": "nonpayable",
      "type": "function"
    },
    {
      "inputs": [],
      "name": "erc20",
      "outputs": [
        {
          "internalType": "contract IERC20",
          "name": "",
          "type": "address"
        }
      ],
      "stateMutability": "view",
      "type": "function"
    },
    {
      "inputs": [],
      "name": "fundsAddress",
      "outputs": [
        {
          "internalType": "address",
          "name": "",
          "type": "address"
        }
      ],
      "stateMutability": "view",
      "type": "function"
    },
    {
      "inputs": [],
      "name": "getBadges",
      "outputs": [
        {
          "components": [
            {
              "internalType": "bool",
              "name": "mintable",
              "type": "bool"
            },
            {
              "internalType": "bool",
              "name": "transferable",
              "type": "bool"
            },
            {
              "internalType": "uint256",
              "name": "amount",
              "type": "uint256"
            },
            {
              "internalType": "uint256",
              "name": "maxSupply",
              "type": "uint256"
            },
            {
              "internalType": "string",
              "name": "tokenURI",
              "type": "string"
            },
            {
              "internalType": "uint256",
              "name": "maxMintPerWallet",
              "type": "uint256"
            }
          ],
          "internalType": "struct HenkakuBadge.Badge[]",
          "name": "",
          "type": "tuple[]"
        }
      ],
      "stateMutability": "view",
      "type": "function"
    },
    {
      "inputs": [
        {
          "internalType": "address",
          "name": "account",
          "type": "address"
        },
        {
          "internalType": "address",
          "name": "operator",
          "type": "address"
        }
      ],
      "name": "isApprovedForAll",
      "outputs": [
        {
          "internalType": "bool",
          "name": "",
          "type": "bool"
        }
      ],
      "stateMutability": "view",
      "type": "function"
    },
    {
      "inputs": [
        {
          "internalType": "uint256",
          "name": "_tokenId",
          "type": "uint256"
        }
      ],
      "name": "mint",
      "outputs": [],
      "stateMutability": "nonpayable",
      "type": "function"
    },
    {
      "inputs": [
        {
          "internalType": "uint256",
          "name": "_tokenId",
          "type": "uint256"
        },
        {
          "internalType": "address",
          "name": "_to",
          "type": "address"
        }
      ],
      "name": "mintByAdmin",
      "outputs": [],
      "stateMutability": "nonpayable",
      "type": "function"
    },
    {
      "inputs": [],
      "name": "owner",
      "outputs": [
        {
          "internalType": "address",
          "name": "",
          "type": "address"
        }
      ],
      "stateMutability": "view",
      "type": "function"
    },
    {
      "inputs": [],
      "name": "renounceOwnership",
      "outputs": [],
      "stateMutability": "nonpayable",
      "type": "function"
    },
    {
      "inputs": [
        {
          "internalType": "address",
          "name": "from",
          "type": "address"
        },
        {
          "internalType": "address",
          "name": "to",
          "type": "address"
        },
        {
          "internalType": "uint256[]",
          "name": "ids",
          "type": "uint256[]"
        },
        {
          "internalType": "uint256[]",
          "name": "amounts",
          "type": "uint256[]"
        },
        {
          "internalType": "bytes",
          "name": "data",
          "type": "bytes"
        }
      ],
      "name": "safeBatchTransferFrom",
      "outputs": [],
      "stateMutability": "nonpayable",
      "type": "function"
    },
    {
      "inputs": [
        {
          "internalType": "address",
          "name": "_from",
          "type": "address"
        },
        {
          "internalType": "address",
          "name": "_to",
          "type": "address"
        },
        {
          "internalType": "uint256",
          "name": "_tokenId",
          "type": "uint256"
        },
        {
          "internalType": "uint256",
          "name": "_amount",
          "type": "uint256"
        },
        {
          "internalType": "bytes",
          "name": "_data",
          "type": "bytes"
        }
      ],
      "name": "safeTransferFrom",
      "outputs": [],
      "stateMutability": "nonpayable",
      "type": "function"
    },
    {
      "inputs": [
        {
          "internalType": "address",
          "name": "operator",
          "type": "address"
        },
        {
          "internalType": "bool",
          "name": "approved",
          "type": "bool"
        }
      ],
      "name": "setApprovalForAll",
      "outputs": [],
      "stateMutability": "nonpayable",
      "type": "function"
    },
    {
      "inputs": [
        {
          "internalType": "address",
          "name": "_addr",
          "type": "address"
        }
      ],
      "name": "setERC20",
      "outputs": [],
      "stateMutability": "nonpayable",
      "type": "function"
    },
    {
      "inputs": [
        {
          "internalType": "address",
          "name": "_fundsAddress",
          "type": "address"
        }
      ],
      "name": "setFundsAddress",
      "outputs": [],
      "stateMutability": "nonpayable",
      "type": "function"
    },
    {
      "inputs": [
        {
          "internalType": "bytes4",
          "name": "interfaceId",
          "type": "bytes4"
        }
      ],
      "name": "supportsInterface",
      "outputs": [
        {
          "internalType": "bool",
          "name": "",
          "type": "bool"
        }
      ],
      "stateMutability": "view",
      "type": "function"
    },
    {
      "inputs": [],
      "name": "tokenAmount",
      "outputs": [
        {
          "internalType": "uint256",
          "name": "",
          "type": "uint256"
        }
      ],
      "stateMutability": "view",
      "type": "function"
    },
    {
      "inputs": [
        {
          "internalType": "uint256",
          "name": "",
          "type": "uint256"
        }
      ],
      "name": "totalSupply",
      "outputs": [
        {
          "internalType": "uint256",
          "name": "",
          "type": "uint256"
        }
      ],
      "stateMutability": "view",
      "type": "function"
    },
    {
      "inputs": [
        {
          "internalType": "address",
          "name": "newOwner",
          "type": "address"
        }
      ],
      "name": "transferOwnership",
      "outputs": [],
      "stateMutability": "nonpayable",
      "type": "function"
    },
    {
      "inputs": [
        {
          "internalType": "uint256",
          "name": "_tokenId",
          "type": "uint256"
        },
        {
          "internalType": "bool",
          "name": "_mintable",
          "type": "bool"
        },
        {
          "internalType": "string",
          "name": "_tokenURI",
          "type": "string"
        }
      ],
      "name": "updateBadgeAttr",
      "outputs": [],
      "stateMutability": "nonpayable",
      "type": "function"
    },
    {
      "inputs": [
        {
          "internalType": "uint256",
          "name": "_tokenId",
          "type": "uint256"
        }
      ],
      "name": "uri",
      "outputs": [
        {
          "internalType": "string",
          "name": "",
          "type": "string"
        }
      ],
      "stateMutability": "view",
      "type": "function"
    },
    {
      "inputs": [
        {
          "internalType": "address",
          "name": "_token",
          "type": "address"
        }
      ],
      "name": "withdraw",
      "outputs": [],
      "stateMutability": "nonpayable",
      "type": "function"
    }
  ],
  "bytecode": "0x60a060405260016080908152503480156200001957600080fd5b5060405162005ab838038062005ab883398181016040528101906200003f91906200042c565b604051806020016040528060008152506200006081620000ab60201b60201c565b506200008162000075620000c760201b60201c565b620000cf60201b60201c565b62000092826200019560201b60201c565b620000a3816200026860201b60201c565b5050620005a3565b8060029080519060200190620000c392919062000365565b5050565b600033905090565b6000600360009054906101000a900473ffffffffffffffffffffffffffffffffffffffff16905081600360006101000a81548173ffffffffffffffffffffffffffffffffffffffff021916908373ffffffffffffffffffffffffffffffffffffffff1602179055508173ffffffffffffffffffffffffffffffffffffffff168173ffffffffffffffffffffffffffffffffffffffff167f8be0079c531659141344cd1fd0a4f28419497f9722a3daafe3b4186f6b6457e060405160405180910390a35050565b620001a5620000c760201b60201c565b73ffffffffffffffffffffffffffffffffffffffff16620001cb6200033b60201b60201c565b73ffffffffffffffffffffffffffffffffffffffff161462000224576040517f08c379a00000000000000000000000000000000000000000000000000000000081526004016200021b9062000494565b60405180910390fd5b80600560006101000a81548173ffffffffffffffffffffffffffffffffffffffff021916908373ffffffffffffffffffffffffffffffffffffffff16021790555050565b62000278620000c760201b60201c565b73ffffffffffffffffffffffffffffffffffffffff166200029e6200033b60201b60201c565b73ffffffffffffffffffffffffffffffffffffffff1614620002f7576040517f08c379a0000000000000000000000000000000000000000000000000000000008152600401620002ee9062000494565b60405180910390fd5b80600660006101000a81548173ffffffffffffffffffffffffffffffffffffffff021916908373ffffffffffffffffffffffffffffffffffffffff16021790555050565b6000600360009054906101000a900473ffffffffffffffffffffffffffffffffffffffff16905090565b8280546200037390620004fb565b90600052602060002090601f016020900481019282620003975760008555620003e3565b82601f10620003b257805160ff1916838001178555620003e3565b82800160010185558215620003e3579182015b82811115620003e2578251825591602001919060010190620003c5565b5b509050620003f29190620003f6565b5090565b5b8082111562000411576000816000905550600101620003f7565b5090565b600081519050620004268162000589565b92915050565b600080604083850312156200044057600080fd5b6000620004508582860162000415565b9250506020620004638582860162000415565b9150509250929050565b60006200047c602083620004b6565b9150620004898262000560565b602082019050919050565b60006020820190508181036000830152620004af816200046d565b9050919050565b600082825260208201905092915050565b6000620004d482620004db565b9050919050565b600073ffffffffffffffffffffffffffffffffffffffff82169050919050565b600060028204905060018216806200051457607f821691505b602082108114156200052b576200052a62000531565b5b50919050565b7f4e487b7100000000000000000000000000000000000000000000000000000000600052602260045260246000fd5b7f4f776e61626c653a2063616c6c6572206973206e6f7420746865206f776e6572600082015250565b6200059481620004c7565b8114620005a057600080fd5b50565b6080516154e4620005d4600039600081816110840152818161194d01528181611e3a015261231501526154e46000f3fe608060405234801561001057600080fd5b506004361061018d5760003560e01c806398e36d8b116100de578063d12c1e2811610097578063f242432a11610071578063f242432a14610497578063f2fde38b146104b3578063f5ba646a146104cf578063fcd3533c146104eb5761018d565b8063d12c1e2814610419578063e985e9c514610449578063eec7faa1146104795761018d565b806398e36d8b14610342578063a0712d6814610377578063a22cb46514610393578063a77ccd6e146103af578063bd85b039146103cd578063c29a6fda146103fd5761018d565b806351cff8d91161014b578063785e9e8611610125578063785e9e86146102ce5780637f19abe0146102ec5780638be85aa8146103085780638da5cb5b146103245761018d565b806351cff8d91461028c578063715018a6146102a8578063770c76dd146102b25761018d565b8062fdd58e1461019257806301ffc9a7146101c25780630e89341c146101f25780632eb2c2d61461022257806342a04fea1461023e5780634e1273f41461025c575b600080fd5b6101ac60048036038101906101a79190613bb2565b610507565b6040516101b9919061493e565b60405180910390f35b6101dc60048036038101906101d79190613c83565b6105d0565b6040516101e99190614575565b60405180910390f35b61020c60048036038101906102079190613d16565b6106b2565b604051610219919061463c565b60405180910390f35b61023c60048036038101906102379190613a28565b61075a565b005b6102466107fb565b60405161025391906144fa565b60405180910390f35b61027660048036038101906102719190613bee565b610a07565b604051610283919061451c565b60405180910390f35b6102a660048036038101906102a191906139c3565b610bb8565b005b6102b0610e30565b005b6102cc60048036038101906102c79190613d68565b610eb8565b005b6102d661125b565b6040516102e39190614621565b60405180910390f35b610306600480360381019061030191906139c3565b611281565b005b610322600480360381019061031d9190613cd5565b611341565b005b61032c6114c6565b60405161033991906143bd565b60405180910390f35b61035c60048036038101906103579190613d16565b6114f0565b60405161036e96959493929190614590565b60405180910390f35b610391600480360381019061038c9190613d16565b6115ce565b005b6103ad60048036038101906103a89190613b76565b611b0c565b005b6103b7611b22565b6040516103c491906143bd565b60405180910390f35b6103e760048036038101906103e29190613d16565b611b48565b6040516103f4919061493e565b60405180910390f35b610417600480360381019061041291906139c3565b611b60565b005b610433600480360381019061042e91906139c3565b611c20565b60405161044091906144fa565b60405180910390f35b610463600480360381019061045e91906139ec565b611da4565b6040516104709190614575565b60405180910390f35b610481611e38565b60405161048e919061493e565b60405180910390f35b6104b160048036038101906104ac9190613ae7565b611e5c565b005b6104cd60048036038101906104c891906139c3565b611f2d565b005b6104e960048036038101906104e49190613da4565b612025565b005b61050560048036038101906105009190613d68565b612191565b005b60008073ffffffffffffffffffffffffffffffffffffffff168373ffffffffffffffffffffffffffffffffffffffff161415610578576040517f08c379a000000000000000000000000000000000000000000000000000000000815260040161056f906146be565b60405180910390fd5b60008083815260200190815260200160002060008473ffffffffffffffffffffffffffffffffffffffff1673ffffffffffffffffffffffffffffffffffffffff16815260200190815260200160002054905092915050565b60007fd9b67a26000000000000000000000000000000000000000000000000000000007bffffffffffffffffffffffffffffffffffffffffffffffffffffffff1916827bffffffffffffffffffffffffffffffffffffffffffffffffffffffff1916148061069b57507f0e89341c000000000000000000000000000000000000000000000000000000007bffffffffffffffffffffffffffffffffffffffffffffffffffffffff1916827bffffffffffffffffffffffffffffffffffffffffffffffffffffffff1916145b806106ab57506106aa82612384565b5b9050919050565b60606007600083815260200190815260200160002060030180546106d590614c80565b80601f016020809104026020016040519081016040528092919081815260200182805461070190614c80565b801561074e5780601f106107235761010080835404028352916020019161074e565b820191906000526020600020905b81548152906001019060200180831161073157829003601f168201915b50505050509050919050565b6107626123ee565b73ffffffffffffffffffffffffffffffffffffffff168573ffffffffffffffffffffffffffffffffffffffff1614806107a857506107a7856107a26123ee565b611da4565b5b6107e7576040517f08c379a00000000000000000000000000000000000000000000000000000000081526004016107de9061477e565b60405180910390fd5b6107f485858585856123f6565b5050505050565b606060006108096004612764565b67ffffffffffffffff811115610848577f4e487b7100000000000000000000000000000000000000000000000000000000600052604160045260246000fd5b60405190808252806020026020018201604052801561088157816020015b61086e613516565b8152602001906001900390816108665790505b50905060005b6108916004612764565b8110156109ff57600760006001836108a99190614b1c565b81526020019081526020016000206040518060c00160405290816000820160009054906101000a900460ff161515151581526020016000820160019054906101000a900460ff16151515158152602001600182015481526020016002820154815260200160038201805461091c90614c80565b80601f016020809104026020016040519081016040528092919081815260200182805461094890614c80565b80156109955780601f1061096a57610100808354040283529160200191610995565b820191906000526020600020905b81548152906001019060200180831161097857829003601f168201915b505050505081526020016004820154815250508282815181106109e1577f4e487b7100000000000000000000000000000000000000000000000000000000600052603260045260246000fd5b602002602001018190525080806109f790614ce3565b915050610887565b508091505090565b60608151835114610a4d576040517f08c379a0000000000000000000000000000000000000000000000000000000008152600401610a44906148be565b60405180910390fd5b6000835167ffffffffffffffff811115610a90577f4e487b7100000000000000000000000000000000000000000000000000000000600052604160045260246000fd5b604051908082528060200260200182016040528015610abe5781602001602082028036833780820191505090505b50905060005b8451811015610bad57610b57858281518110610b09577f4e487b7100000000000000000000000000000000000000000000000000000000600052603260045260246000fd5b6020026020010151858381518110610b4a577f4e487b7100000000000000000000000000000000000000000000000000000000600052603260045260246000fd5b6020026020010151610507565b828281518110610b90577f4e487b7100000000000000000000000000000000000000000000000000000000600052603260045260246000fd5b60200260200101818152505080610ba690614ce3565b9050610ac4565b508091505092915050565b610bc06123ee565b73ffffffffffffffffffffffffffffffffffffffff16610bde6114c6565b73ffffffffffffffffffffffffffffffffffffffff1614610c34576040517f08c379a0000000000000000000000000000000000000000000000000000000008152600401610c2b906147fe565b60405180910390fd5b600081905060008173ffffffffffffffffffffffffffffffffffffffff166370a08231306040518263ffffffff1660e01b8152600401610c7491906143bd565b60206040518083038186803b158015610c8c57600080fd5b505afa158015610ca0573d6000803e3d6000fd5b505050506040513d601f19601f82011682018060405250810190610cc49190613d3f565b905060008111610d09576040517f08c379a0000000000000000000000000000000000000000000000000000000008152600401610d009061485e565b60405180910390fd5b8173ffffffffffffffffffffffffffffffffffffffff1663a9059cbb600660009054906101000a900473ffffffffffffffffffffffffffffffffffffffff16836040518363ffffffff1660e01b8152600401610d669291906144d1565b602060405180830381600087803b158015610d8057600080fd5b505af1158015610d94573d6000803e3d6000fd5b505050506040513d601f19601f82011682018060405250810190610db89190613c5a565b50600660009054906101000a900473ffffffffffffffffffffffffffffffffffffffff1673ffffffffffffffffffffffffffffffffffffffff167fec37a407e13e9283023de85016cfda169c84b8f0e8dcda13c92311ab8fee7ad58483604051610e239291906144d1565b60405180910390a2505050565b610e386123ee565b73ffffffffffffffffffffffffffffffffffffffff16610e566114c6565b73ffffffffffffffffffffffffffffffffffffffff1614610eac576040517f08c379a0000000000000000000000000000000000000000000000000000000008152600401610ea3906147fe565b60405180910390fd5b610eb66000612772565b565b610ec06123ee565b73ffffffffffffffffffffffffffffffffffffffff16610ede6114c6565b73ffffffffffffffffffffffffffffffffffffffff1614610f34576040517f08c379a0000000000000000000000000000000000000000000000000000000008152600401610f2b906147fe565b60405180910390fd5b81600081118015610f4e5750610f4a6004612764565b8111155b610f8d576040517f08c379a0000000000000000000000000000000000000000000000000000000008152600401610f849061491e565b60405180910390fd5b826008600082815260200190815260200160002054600760008381526020019081526020016000206002015411610ff9576040517f08c379a0000000000000000000000000000000000000000000000000000000008152600401610ff09061473e565b60405180910390fd5b8284600760008281526020019081526020016000206004015461101c8383610507565b108061103e575060006007600083815260200190815260200160002060040154145b61107d576040517f08c379a00000000000000000000000000000000000000000000000000000000081526004016110749061471e565b60405180910390fd5b6110b885877f000000000000000000000000000000000000000000000000000000000000000060405180602001604052806000815250612838565b60016008600088815260200190815260200160002060008282546110dc9190614b1c565b92505081905550600960008673ffffffffffffffffffffffffffffffffffffffff1673ffffffffffffffffffffffffffffffffffffffff1681526020019081526020016000206007600088815260200190815260200160002090806001815401808255809150506001900390600052602060002090600502016000909190919091506000820160009054906101000a900460ff168160000160006101000a81548160ff0219169083151502179055506000820160019054906101000a900460ff168160000160016101000a81548160ff021916908315150217905550600182015481600101556002820154816002015560038201816003019080546111e090614c80565b6111eb929190613550565b50600482015481600401555050858573ffffffffffffffffffffffffffffffffffffffff163373ffffffffffffffffffffffffffffffffffffffff167f496f1beb0b6ddcf76d95116e87331794ad08ddbe315c62fd7ff30f465324e31260405160405180910390a4505050505050565b600560009054906101000a900473ffffffffffffffffffffffffffffffffffffffff1681565b6112896123ee565b73ffffffffffffffffffffffffffffffffffffffff166112a76114c6565b73ffffffffffffffffffffffffffffffffffffffff16146112fd576040517f08c379a00000000000000000000000000000000000000000000000000000000081526004016112f4906147fe565b60405180910390fd5b80600660006101000a81548173ffffffffffffffffffffffffffffffffffffffff021916908373ffffffffffffffffffffffffffffffffffffffff16021790555050565b6113496123ee565b73ffffffffffffffffffffffffffffffffffffffff166113676114c6565b73ffffffffffffffffffffffffffffffffffffffff16146113bd576040517f08c379a00000000000000000000000000000000000000000000000000000000081526004016113b4906147fe565b60405180910390fd5b6113c760046129e9565b60006113d36004612764565b9050816007600083815260200190815260200160002060008201518160000160006101000a81548160ff02191690831515021790555060208201518160000160016101000a81548160ff021916908315150217905550604082015181600101556060820151816002015560808201518160030190805190602001906114599291906135dd565b5060a0820151816004015590505060006008600083815260200190815260200160002081905550807f9ef18f7c92032828a6552beb05354e5fb1aa7dbcd0604eccf546d5e89cb345bc836000015184604001516040516114ba9291906145f8565b60405180910390a25050565b6000600360009054906101000a900473ffffffffffffffffffffffffffffffffffffffff16905090565b60076020528060005260406000206000915090508060000160009054906101000a900460ff16908060000160019054906101000a900460ff169080600101549080600201549080600301805461154590614c80565b80601f016020809104026020016040519081016040528092919081815260200182805461157190614c80565b80156115be5780601f10611593576101008083540402835291602001916115be565b820191906000526020600020905b8154815290600101906020018083116115a157829003601f168201915b5050505050908060040154905086565b806000811180156115e857506115e46004612764565b8111155b611627576040517f08c379a000000000000000000000000000000000000000000000000000000000815260040161161e9061491e565b60405180910390fd5b816008600082815260200190815260200160002054600760008381526020019081526020016000206002015411611693576040517f08c379a000000000000000000000000000000000000000000000000000000000815260040161168a9061473e565b60405180910390fd5b338360076000828152602001908152602001600020600401546116b68383610507565b10806116d8575060006007600083815260200190815260200160002060040154145b611717576040517f08c379a000000000000000000000000000000000000000000000000000000000815260040161170e9061471e565b60405180910390fd5b6007600086815260200190815260200160002060010154600560009054906101000a900473ffffffffffffffffffffffffffffffffffffffff1673ffffffffffffffffffffffffffffffffffffffff166370a08231336040518263ffffffff1660e01b815260040161178991906143bd565b60206040518083038186803b1580156117a157600080fd5b505afa1580156117b5573d6000803e3d6000fd5b505050506040513d601f19601f820116820180604052508101906117d99190613d3f565b101561181a576040517f08c379a00000000000000000000000000000000000000000000000000000000081526004016118119061483e565b60405180910390fd5b600060076000878152602001908152602001600020600101541115611946576000600560009054906101000a900473ffffffffffffffffffffffffffffffffffffffff1673ffffffffffffffffffffffffffffffffffffffff166323b872dd3330600760008b8152602001908152602001600020600101546040518463ffffffff1660e01b81526004016118b093929190614440565b602060405180830381600087803b1580156118ca57600080fd5b505af11580156118de573d6000803e3d6000fd5b505050506040513d601f19601f820116820180604052508101906119029190613c5a565b905080611944576040517f08c379a000000000000000000000000000000000000000000000000000000000815260040161193b9061469e565b60405180910390fd5b505b61198133867f000000000000000000000000000000000000000000000000000000000000000060405180602001604052806000815250612838565b60016008600087815260200190815260200160002060008282546119a59190614b1c565b92505081905550600960003373ffffffffffffffffffffffffffffffffffffffff1673ffffffffffffffffffffffffffffffffffffffff1681526020019081526020016000206007600087815260200190815260200160002090806001815401808255809150506001900390600052602060002090600502016000909190919091506000820160009054906101000a900460ff168160000160006101000a81548160ff0219169083151502179055506000820160019054906101000a900460ff168160000160016101000a81548160ff02191690831515021790555060018201548160010155600282015481600201556003820181600301908054611aa990614c80565b611ab4929190613550565b50600482015481600401555050843373ffffffffffffffffffffffffffffffffffffffff167f0f6798a560793a54c3bcfe86a93cde1e73087d944c0ea20544137d412139688560405160405180910390a35050505050565b611b1e611b176123ee565b83836129ff565b5050565b600660009054906101000a900473ffffffffffffffffffffffffffffffffffffffff1681565b60086020528060005260406000206000915090505481565b611b686123ee565b73ffffffffffffffffffffffffffffffffffffffff16611b866114c6565b73ffffffffffffffffffffffffffffffffffffffff1614611bdc576040517f08c379a0000000000000000000000000000000000000000000000000000000008152600401611bd3906147fe565b60405180910390fd5b80600560006101000a81548173ffffffffffffffffffffffffffffffffffffffff021916908373ffffffffffffffffffffffffffffffffffffffff16021790555050565b6060600960008373ffffffffffffffffffffffffffffffffffffffff1673ffffffffffffffffffffffffffffffffffffffff168152602001908152602001600020805480602002602001604051908101604052809291908181526020016000905b82821015611d9957838290600052602060002090600502016040518060c00160405290816000820160009054906101000a900460ff161515151581526020016000820160019054906101000a900460ff161515151581526020016001820154815260200160028201548152602001600382018054611cfe90614c80565b80601f0160208091040260200160405190810160405280929190818152602001828054611d2a90614c80565b8015611d775780601f10611d4c57610100808354040283529160200191611d77565b820191906000526020600020905b815481529060010190602001808311611d5a57829003601f168201915b5050505050815260200160048201548152505081526020019060010190611c81565b505050509050919050565b6000600160008473ffffffffffffffffffffffffffffffffffffffff1673ffffffffffffffffffffffffffffffffffffffff16815260200190815260200160002060008373ffffffffffffffffffffffffffffffffffffffff1673ffffffffffffffffffffffffffffffffffffffff16815260200190815260200160002060009054906101000a900460ff16905092915050565b7f000000000000000000000000000000000000000000000000000000000000000081565b82600081118015611e765750611e726004612764565b8111155b611eb5576040517f08c379a0000000000000000000000000000000000000000000000000000000008152600401611eac9061491e565b60405180910390fd5b6007600085815260200190815260200160002060000160019054906101000a900460ff16611f18576040517f08c379a0000000000000000000000000000000000000000000000000000000008152600401611f0f906147de565b60405180910390fd5b611f258686868686612b6c565b505050505050565b611f356123ee565b73ffffffffffffffffffffffffffffffffffffffff16611f536114c6565b73ffffffffffffffffffffffffffffffffffffffff1614611fa9576040517f08c379a0000000000000000000000000000000000000000000000000000000008152600401611fa0906147fe565b60405180910390fd5b600073ffffffffffffffffffffffffffffffffffffffff168173ffffffffffffffffffffffffffffffffffffffff161415612019576040517f08c379a0000000000000000000000000000000000000000000000000000000008152600401612010906146de565b60405180910390fd5b61202281612772565b50565b61202d6123ee565b73ffffffffffffffffffffffffffffffffffffffff1661204b6114c6565b73ffffffffffffffffffffffffffffffffffffffff16146120a1576040517f08c379a0000000000000000000000000000000000000000000000000000000008152600401612098906147fe565b60405180910390fd5b826000811180156120bb57506120b76004612764565b8111155b6120fa576040517f08c379a00000000000000000000000000000000000000000000000000000000081526004016120f19061491e565b60405180910390fd5b826007600086815260200190815260200160002060000160006101000a81548160ff021916908315150217905550816007600086815260200190815260200160002060030190805190602001906121529291906135dd565b50837fd962c3d61342628813883ef00841f4e578f2e4122cd35d7caf2905f530c91680846040516121839190614575565b60405180910390a250505050565b816000811180156121ab57506121a76004612764565b8111155b6121ea576040517f08c379a00000000000000000000000000000000000000000000000000000000081526004016121e19061491e565b60405180910390fd5b818360006121f88383610507565b11612238576040517f08c379a000000000000000000000000000000000000000000000000000000000815260040161222f9061487e565b60405180910390fd5b6122406114c6565b73ffffffffffffffffffffffffffffffffffffffff163373ffffffffffffffffffffffffffffffffffffffff1614806122a457508373ffffffffffffffffffffffffffffffffffffffff163373ffffffffffffffffffffffffffffffffffffffff16145b6122e3576040517f08c379a00000000000000000000000000000000000000000000000000000000081526004016122da9061481e565b60405180910390fd5b60016008600087815260200190815260200160002060008282546123079190614b72565b9250508190555061233984867f0000000000000000000000000000000000000000000000000000000000000000612e08565b8373ffffffffffffffffffffffffffffffffffffffff16857f3b4c8e1ccfa5e86ea249aa35b8fd241abbea5003c3e08a074edbb2e934087dd160405160405180910390a35050505050565b60007f01ffc9a7000000000000000000000000000000000000000000000000000000007bffffffffffffffffffffffffffffffffffffffffffffffffffffffff1916827bffffffffffffffffffffffffffffffffffffffffffffffffffffffff1916149050919050565b600033905090565b815183511461243a576040517f08c379a0000000000000000000000000000000000000000000000000000000008152600401612431906148de565b60405180910390fd5b600073ffffffffffffffffffffffffffffffffffffffff168473ffffffffffffffffffffffffffffffffffffffff1614156124aa576040517f08c379a00000000000000000000000000000000000000000000000000000000081526004016124a19061475e565b60405180910390fd5b60006124b46123ee565b90506124c481878787878761304f565b60005b84518110156126c157600085828151811061250b577f4e487b7100000000000000000000000000000000000000000000000000000000600052603260045260246000fd5b602002602001015190506000858381518110612550577f4e487b7100000000000000000000000000000000000000000000000000000000600052603260045260246000fd5b60200260200101519050600080600084815260200190815260200160002060008b73ffffffffffffffffffffffffffffffffffffffff1673ffffffffffffffffffffffffffffffffffffffff168152602001908152602001600020549050818110156125f1576040517f08c379a00000000000000000000000000000000000000000000000000000000081526004016125e8906147be565b60405180910390fd5b81810360008085815260200190815260200160002060008c73ffffffffffffffffffffffffffffffffffffffff1673ffffffffffffffffffffffffffffffffffffffff168152602001908152602001600020819055508160008085815260200190815260200160002060008b73ffffffffffffffffffffffffffffffffffffffff1673ffffffffffffffffffffffffffffffffffffffff16815260200190815260200160002060008282546126a69190614b1c565b92505081905550505050806126ba90614ce3565b90506124c7565b508473ffffffffffffffffffffffffffffffffffffffff168673ffffffffffffffffffffffffffffffffffffffff168273ffffffffffffffffffffffffffffffffffffffff167f4a39dc06d4c0dbc64b70af90fd698a233a518aa5d07e595d983b8c0526c8f7fb878760405161273892919061453e565b60405180910390a461274e818787878787613057565b61275c81878787878761305f565b505050505050565b600081600001549050919050565b6000600360009054906101000a900473ffffffffffffffffffffffffffffffffffffffff16905081600360006101000a81548173ffffffffffffffffffffffffffffffffffffffff021916908373ffffffffffffffffffffffffffffffffffffffff1602179055508173ffffffffffffffffffffffffffffffffffffffff168173ffffffffffffffffffffffffffffffffffffffff167f8be0079c531659141344cd1fd0a4f28419497f9722a3daafe3b4186f6b6457e060405160405180910390a35050565b600073ffffffffffffffffffffffffffffffffffffffff168473ffffffffffffffffffffffffffffffffffffffff1614156128a8576040517f08c379a000000000000000000000000000000000000000000000000000000000815260040161289f906148fe565b60405180910390fd5b60006128b26123ee565b905060006128bf85613246565b905060006128cc85613246565b90506128dd8360008985858961304f565b8460008088815260200190815260200160002060008973ffffffffffffffffffffffffffffffffffffffff1673ffffffffffffffffffffffffffffffffffffffff168152602001908152602001600020600082825461293c9190614b1c565b925050819055508673ffffffffffffffffffffffffffffffffffffffff16600073ffffffffffffffffffffffffffffffffffffffff168473ffffffffffffffffffffffffffffffffffffffff167fc3d58168c5ae7397731d063d5bbf3d657854427343f4c083240f7aacaa2d0f6289896040516129ba929190614959565b60405180910390a46129d183600089858589613057565b6129e08360008989898961330c565b50505050505050565b6001816000016000828254019250508190555050565b8173ffffffffffffffffffffffffffffffffffffffff168373ffffffffffffffffffffffffffffffffffffffff161415612a6e576040517f08c379a0000000000000000000000000000000000000000000000000000000008152600401612a659061489e565b60405180910390fd5b80600160008573ffffffffffffffffffffffffffffffffffffffff1673ffffffffffffffffffffffffffffffffffffffff16815260200190815260200160002060008473ffffffffffffffffffffffffffffffffffffffff1673ffffffffffffffffffffffffffffffffffffffff16815260200190815260200160002060006101000a81548160ff0219169083151502179055508173ffffffffffffffffffffffffffffffffffffffff168373ffffffffffffffffffffffffffffffffffffffff167f17307eab39ab6107e8899845ad3d59bd9653f200f220920489ca2b5937696c3183604051612b5f9190614575565b60405180910390a3505050565b600073ffffffffffffffffffffffffffffffffffffffff168473ffffffffffffffffffffffffffffffffffffffff161415612bdc576040517f08c379a0000000000000000000000000000000000000000000000000000000008152600401612bd39061475e565b60405180910390fd5b6000612be66123ee565b90506000612bf385613246565b90506000612c0085613246565b9050612c1083898985858961304f565b600080600088815260200190815260200160002060008a73ffffffffffffffffffffffffffffffffffffffff1673ffffffffffffffffffffffffffffffffffffffff16815260200190815260200160002054905085811015612ca7576040517f08c379a0000000000000000000000000000000000000000000000000000000008152600401612c9e906147be565b60405180910390fd5b85810360008089815260200190815260200160002060008b73ffffffffffffffffffffffffffffffffffffffff1673ffffffffffffffffffffffffffffffffffffffff168152602001908152602001600020819055508560008089815260200190815260200160002060008a73ffffffffffffffffffffffffffffffffffffffff1673ffffffffffffffffffffffffffffffffffffffff1681526020019081526020016000206000828254612d5c9190614b1c565b925050819055508773ffffffffffffffffffffffffffffffffffffffff168973ffffffffffffffffffffffffffffffffffffffff168573ffffffffffffffffffffffffffffffffffffffff167fc3d58168c5ae7397731d063d5bbf3d657854427343f4c083240f7aacaa2d0f628a8a604051612dd9929190614959565b60405180910390a4612def848a8a86868a613057565b612dfd848a8a8a8a8a61330c565b505050505050505050565b600073ffffffffffffffffffffffffffffffffffffffff168373ffffffffffffffffffffffffffffffffffffffff161415612e78576040517f08c379a0000000000000000000000000000000000000000000000000000000008152600401612e6f9061479e565b60405180910390fd5b6000612e826123ee565b90506000612e8f84613246565b90506000612e9c84613246565b9050612ebc8387600085856040518060200160405280600081525061304f565b600080600087815260200190815260200160002060008873ffffffffffffffffffffffffffffffffffffffff1673ffffffffffffffffffffffffffffffffffffffff16815260200190815260200160002054905084811015612f53576040517f08c379a0000000000000000000000000000000000000000000000000000000008152600401612f4a906146fe565b60405180910390fd5b84810360008088815260200190815260200160002060008973ffffffffffffffffffffffffffffffffffffffff1673ffffffffffffffffffffffffffffffffffffffff16815260200190815260200160002081905550600073ffffffffffffffffffffffffffffffffffffffff168773ffffffffffffffffffffffffffffffffffffffff168573ffffffffffffffffffffffffffffffffffffffff167fc3d58168c5ae7397731d063d5bbf3d657854427343f4c083240f7aacaa2d0f628989604051613020929190614959565b60405180910390a461304684886000868660405180602001604052806000815250613057565b50505050505050565b505050505050565b505050505050565b61307e8473ffffffffffffffffffffffffffffffffffffffff166134f3565b1561323e578373ffffffffffffffffffffffffffffffffffffffff1663bc197c8187878686866040518663ffffffff1660e01b81526004016130c49594939291906143d8565b602060405180830381600087803b1580156130de57600080fd5b505af192505050801561310f57506040513d601f19601f8201168201806040525081019061310c9190613cac565b60015b6131b55761311b614db9565b806308c379a0141561317857506131306153bc565b8061313b575061317a565b806040517f08c379a000000000000000000000000000000000000000000000000000000000815260040161316f919061463c565b60405180910390fd5b505b6040517f08c379a00000000000000000000000000000000000000000000000000000000081526004016131ac9061465e565b60405180910390fd5b63bc197c8160e01b7bffffffffffffffffffffffffffffffffffffffffffffffffffffffff1916817bffffffffffffffffffffffffffffffffffffffffffffffffffffffff19161461323c576040517f08c379a00000000000000000000000000000000000000000000000000000000081526004016132339061467e565b60405180910390fd5b505b505050505050565b60606000600167ffffffffffffffff81111561328b577f4e487b7100000000000000000000000000000000000000000000000000000000600052604160045260246000fd5b6040519080825280602002602001820160405280156132b95781602001602082028036833780820191505090505b50905082816000815181106132f7577f4e487b7100000000000000000000000000000000000000000000000000000000600052603260045260246000fd5b60200260200101818152505080915050919050565b61332b8473ffffffffffffffffffffffffffffffffffffffff166134f3565b156134eb578373ffffffffffffffffffffffffffffffffffffffff1663f23a6e6187878686866040518663ffffffff1660e01b8152600401613371959493929190614477565b602060405180830381600087803b15801561338b57600080fd5b505af19250505080156133bc57506040513d601f19601f820116820180604052508101906133b99190613cac565b60015b613462576133c8614db9565b806308c379a0141561342557506133dd6153bc565b806133e85750613427565b806040517f08c379a000000000000000000000000000000000000000000000000000000000815260040161341c919061463c565b60405180910390fd5b505b6040517f08c379a00000000000000000000000000000000000000000000000000000000081526004016134599061465e565b60405180910390fd5b63f23a6e6160e01b7bffffffffffffffffffffffffffffffffffffffffffffffffffffffff1916817bffffffffffffffffffffffffffffffffffffffffffffffffffffffff1916146134e9576040517f08c379a00000000000000000000000000000000000000000000000000000000081526004016134e09061467e565b60405180910390fd5b505b505050505050565b6000808273ffffffffffffffffffffffffffffffffffffffff163b119050919050565b6040518060c00160405280600015158152602001600015158152602001600081526020016000815260200160608152602001600081525090565b82805461355c90614c80565b90600052602060002090601f01602090048101928261357e57600085556135cc565b82601f1061358f57805485556135cc565b828001600101855582156135cc57600052602060002091601f016020900482015b828111156135cb5782548255916001019190600101906135b0565b5b5090506135d99190613663565b5090565b8280546135e990614c80565b90600052602060002090601f01602090048101928261360b5760008555613652565b82601f1061362457805160ff1916838001178555613652565b82800160010185558215613652579182015b82811115613651578251825591602001919060010190613636565b5b50905061365f9190613663565b5090565b5b8082111561367c576000816000905550600101613664565b5090565b600061369361368e846149a7565b614982565b905080838252602082019050828560208602820111156136b257600080fd5b60005b858110156136e257816136c888826137d4565b8452602084019350602083019250506001810190506136b5565b5050509392505050565b60006136ff6136fa846149d3565b614982565b9050808382526020820190508285602086028201111561371e57600080fd5b60005b8581101561374e57816137348882613999565b845260208401935060208301925050600181019050613721565b5050509392505050565b600061376b613766846149ff565b614982565b90508281526020810184848401111561378357600080fd5b61378e848285614c3e565b509392505050565b60006137a96137a484614a30565b614982565b9050828152602081018484840111156137c157600080fd5b6137cc848285614c3e565b509392505050565b6000813590506137e381615452565b92915050565b600082601f8301126137fa57600080fd5b813561380a848260208601613680565b91505092915050565b600082601f83011261382457600080fd5b81356138348482602086016136ec565b91505092915050565b60008135905061384c81615469565b92915050565b60008151905061386181615469565b92915050565b60008135905061387681615480565b92915050565b60008151905061388b81615480565b92915050565b600082601f8301126138a257600080fd5b81356138b2848260208601613758565b91505092915050565b600082601f8301126138cc57600080fd5b81356138dc848260208601613796565b91505092915050565b600060c082840312156138f757600080fd5b61390160c0614982565b905060006139118482850161383d565b60008301525060206139258482850161383d565b602083015250604061393984828501613999565b604083015250606061394d84828501613999565b606083015250608082013567ffffffffffffffff81111561396d57600080fd5b613979848285016138bb565b60808301525060a061398d84828501613999565b60a08301525092915050565b6000813590506139a881615497565b92915050565b6000815190506139bd81615497565b92915050565b6000602082840312156139d557600080fd5b60006139e3848285016137d4565b91505092915050565b600080604083850312156139ff57600080fd5b6000613a0d858286016137d4565b9250506020613a1e858286016137d4565b9150509250929050565b600080600080600060a08688031215613a4057600080fd5b6000613a4e888289016137d4565b9550506020613a5f888289016137d4565b945050604086013567ffffffffffffffff811115613a7c57600080fd5b613a8888828901613813565b935050606086013567ffffffffffffffff811115613aa557600080fd5b613ab188828901613813565b925050608086013567ffffffffffffffff811115613ace57600080fd5b613ada88828901613891565b9150509295509295909350565b600080600080600060a08688031215613aff57600080fd5b6000613b0d888289016137d4565b9550506020613b1e888289016137d4565b9450506040613b2f88828901613999565b9350506060613b4088828901613999565b925050608086013567ffffffffffffffff811115613b5d57600080fd5b613b6988828901613891565b9150509295509295909350565b60008060408385031215613b8957600080fd5b6000613b97858286016137d4565b9250506020613ba88582860161383d565b9150509250929050565b60008060408385031215613bc557600080fd5b6000613bd3858286016137d4565b9250506020613be485828601613999565b9150509250929050565b60008060408385031215613c0157600080fd5b600083013567ffffffffffffffff811115613c1b57600080fd5b613c27858286016137e9565b925050602083013567ffffffffffffffff811115613c4457600080fd5b613c5085828601613813565b9150509250929050565b600060208284031215613c6c57600080fd5b6000613c7a84828501613852565b91505092915050565b600060208284031215613c9557600080fd5b6000613ca384828501613867565b91505092915050565b600060208284031215613cbe57600080fd5b6000613ccc8482850161387c565b91505092915050565b600060208284031215613ce757600080fd5b600082013567ffffffffffffffff811115613d0157600080fd5b613d0d848285016138e5565b91505092915050565b600060208284031215613d2857600080fd5b6000613d3684828501613999565b91505092915050565b600060208284031215613d5157600080fd5b6000613d5f848285016139ae565b91505092915050565b60008060408385031215613d7b57600080fd5b6000613d8985828601613999565b9250506020613d9a858286016137d4565b9150509250929050565b600080600060608486031215613db957600080fd5b6000613dc786828701613999565b9350506020613dd88682870161383d565b925050604084013567ffffffffffffffff811115613df557600080fd5b613e01868287016138bb565b9150509250925092565b6000613e178383614316565b905092915050565b6000613e2b838361439f565b60208301905092915050565b613e4081614ba6565b82525050565b6000613e5182614a81565b613e5b8185614ac7565b935083602082028501613e6d85614a61565b8060005b85811015613ea95784840389528151613e8a8582613e0b565b9450613e9583614aad565b925060208a01995050600181019050613e71565b50829750879550505050505092915050565b6000613ec682614a8c565b613ed08185614ad8565b9350613edb83614a71565b8060005b83811015613f0c578151613ef38882613e1f565b9750613efe83614aba565b925050600181019050613edf565b5085935050505092915050565b613f2281614bb8565b82525050565b613f3181614bb8565b82525050565b6000613f4282614a97565b613f4c8185614ae9565b9350613f5c818560208601614c4d565b613f6581614ddb565b840191505092915050565b613f7981614c1a565b82525050565b6000613f8a82614aa2565b613f948185614afa565b9350613fa4818560208601614c4d565b613fad81614ddb565b840191505092915050565b6000613fc382614aa2565b613fcd8185614b0b565b9350613fdd818560208601614c4d565b613fe681614ddb565b840191505092915050565b6000613ffe603483614b0b565b915061400982614df9565b604082019050919050565b6000614021602883614b0b565b915061402c82614e48565b604082019050919050565b6000614044600983614b0b565b915061404f82614e97565b602082019050919050565b6000614067602b83614b0b565b915061407282614ec0565b604082019050919050565b600061408a602683614b0b565b915061409582614f0f565b604082019050919050565b60006140ad602483614b0b565b91506140b882614f5e565b604082019050919050565b60006140d0602383614b0b565b91506140db82614fad565b604082019050919050565b60006140f3601683614b0b565b91506140fe82614ffc565b602082019050919050565b6000614116602583614b0b565b915061412182615025565b604082019050919050565b6000614139603283614b0b565b915061414482615074565b604082019050919050565b600061415c602383614b0b565b9150614167826150c3565b604082019050919050565b600061417f602a83614b0b565b915061418a82615112565b604082019050919050565b60006141a2601283614b0b565b91506141ad82615161565b602082019050919050565b60006141c5602083614b0b565b91506141d08261518a565b602082019050919050565b60006141e8601283614b0b565b91506141f3826151b3565b602082019050919050565b600061420b601483614b0b565b9150614216826151dc565b602082019050919050565b600061422e601983614b0b565b915061423982615205565b602082019050919050565b6000614251601383614b0b565b915061425c8261522e565b602082019050919050565b6000614274602983614b0b565b915061427f82615257565b604082019050919050565b6000614297602983614b0b565b91506142a2826152a6565b604082019050919050565b60006142ba602883614b0b565b91506142c5826152f5565b604082019050919050565b60006142dd602183614b0b565b91506142e882615344565b604082019050919050565b6000614300601083614b0b565b915061430b82615393565b602082019050919050565b600060c08301600083015161432e6000860182613f19565b5060208301516143416020860182613f19565b506040830151614354604086018261439f565b506060830151614367606086018261439f565b506080830151848203608086015261437f8282613f7f565b91505060a083015161439460a086018261439f565b508091505092915050565b6143a881614c10565b82525050565b6143b781614c10565b82525050565b60006020820190506143d26000830184613e37565b92915050565b600060a0820190506143ed6000830188613e37565b6143fa6020830187613e37565b818103604083015261440c8186613ebb565b905081810360608301526144208185613ebb565b905081810360808301526144348184613f37565b90509695505050505050565b60006060820190506144556000830186613e37565b6144626020830185613e37565b61446f60408301846143ae565b949350505050565b600060a08201905061448c6000830188613e37565b6144996020830187613e37565b6144a660408301866143ae565b6144b360608301856143ae565b81810360808301526144c58184613f37565b90509695505050505050565b60006040820190506144e66000830185613e37565b6144f360208301846143ae565b9392505050565b600060208201905081810360008301526145148184613e46565b905092915050565b600060208201905081810360008301526145368184613ebb565b905092915050565b600060408201905081810360008301526145588185613ebb565b9050818103602083015261456c8184613ebb565b90509392505050565b600060208201905061458a6000830184613f28565b92915050565b600060c0820190506145a56000830189613f28565b6145b26020830188613f28565b6145bf60408301876143ae565b6145cc60608301866143ae565b81810360808301526145de8185613fb8565b90506145ed60a08301846143ae565b979650505050505050565b600060408201905061460d6000830185613f28565b61461a60208301846143ae565b9392505050565b60006020820190506146366000830184613f70565b92915050565b600060208201905081810360008301526146568184613fb8565b905092915050565b6000602082019050818103600083015261467781613ff1565b9050919050565b6000602082019050818103600083015261469781614014565b9050919050565b600060208201905081810360008301526146b781614037565b9050919050565b600060208201905081810360008301526146d78161405a565b9050919050565b600060208201905081810360008301526146f78161407d565b9050919050565b60006020820190508181036000830152614717816140a0565b9050919050565b60006020820190508181036000830152614737816140c3565b9050919050565b60006020820190508181036000830152614757816140e6565b9050919050565b6000602082019050818103600083015261477781614109565b9050919050565b600060208201905081810360008301526147978161412c565b9050919050565b600060208201905081810360008301526147b78161414f565b9050919050565b600060208201905081810360008301526147d781614172565b9050919050565b600060208201905081810360008301526147f781614195565b9050919050565b60006020820190508181036000830152614817816141b8565b9050919050565b60006020820190508181036000830152614837816141db565b9050919050565b60006020820190508181036000830152614857816141fe565b9050919050565b6000602082019050818103600083015261487781614221565b9050919050565b6000602082019050818103600083015261489781614244565b9050919050565b600060208201905081810360008301526148b781614267565b9050919050565b600060208201905081810360008301526148d78161428a565b9050919050565b600060208201905081810360008301526148f7816142ad565b9050919050565b60006020820190508181036000830152614917816142d0565b9050919050565b60006020820190508181036000830152614937816142f3565b9050919050565b600060208201905061495360008301846143ae565b92915050565b600060408201905061496e60008301856143ae565b61497b60208301846143ae565b9392505050565b600061498c61499d565b90506149988282614cb2565b919050565b6000604051905090565b600067ffffffffffffffff8211156149c2576149c1614d8a565b5b602082029050602081019050919050565b600067ffffffffffffffff8211156149ee576149ed614d8a565b5b602082029050602081019050919050565b600067ffffffffffffffff821115614a1a57614a19614d8a565b5b614a2382614ddb565b9050602081019050919050565b600067ffffffffffffffff821115614a4b57614a4a614d8a565b5b614a5482614ddb565b9050602081019050919050565b6000819050602082019050919050565b6000819050602082019050919050565b600081519050919050565b600081519050919050565b600081519050919050565b600081519050919050565b6000602082019050919050565b6000602082019050919050565b600082825260208201905092915050565b600082825260208201905092915050565b600082825260208201905092915050565b600082825260208201905092915050565b600082825260208201905092915050565b6000614b2782614c10565b9150614b3283614c10565b9250827fffffffffffffffffffffffffffffffffffffffffffffffffffffffffffffffff03821115614b6757614b66614d2c565b5b828201905092915050565b6000614b7d82614c10565b9150614b8883614c10565b925082821015614b9b57614b9a614d2c565b5b828203905092915050565b6000614bb182614bf0565b9050919050565b60008115159050919050565b60007fffffffff0000000000000000000000000000000000000000000000000000000082169050919050565b600073ffffffffffffffffffffffffffffffffffffffff82169050919050565b6000819050919050565b6000614c2582614c2c565b9050919050565b6000614c3782614bf0565b9050919050565b82818337600083830152505050565b60005b83811015614c6b578082015181840152602081019050614c50565b83811115614c7a576000848401525b50505050565b60006002820490506001821680614c9857607f821691505b60208210811415614cac57614cab614d5b565b5b50919050565b614cbb82614ddb565b810181811067ffffffffffffffff82111715614cda57614cd9614d8a565b5b80604052505050565b6000614cee82614c10565b91507fffffffffffffffffffffffffffffffffffffffffffffffffffffffffffffffff821415614d2157614d20614d2c565b5b600182019050919050565b7f4e487b7100000000000000000000000000000000000000000000000000000000600052601160045260246000fd5b7f4e487b7100000000000000000000000000000000000000000000000000000000600052602260045260246000fd5b7f4e487b7100000000000000000000000000000000000000000000000000000000600052604160045260246000fd5b600060033d1115614dd85760046000803e614dd5600051614dec565b90505b90565b6000601f19601f8301169050919050565b60008160e01c9050919050565b7f455243313135353a207472616e7366657220746f206e6f6e204552433131353560008201527f526563656976657220696d706c656d656e746572000000000000000000000000602082015250565b7f455243313135353a204552433131353552656365697665722072656a6563746560008201527f6420746f6b656e73000000000000000000000000000000000000000000000000602082015250565b7f5458204641494c45440000000000000000000000000000000000000000000000600082015250565b7f455243313135353a2062616c616e636520717565727920666f7220746865207a60008201527f65726f2061646472657373000000000000000000000000000000000000000000602082015250565b7f4f776e61626c653a206e6577206f776e657220697320746865207a65726f206160008201527f6464726573730000000000000000000000000000000000000000000000000000602082015250565b7f455243313135353a206275726e20616d6f756e7420657863656564732062616c60008201527f616e636500000000000000000000000000000000000000000000000000000000602082015250565b7f496e76616c69643a20455843454544204d4158204d494e54205045522057414c60008201527f4c45540000000000000000000000000000000000000000000000000000000000602082015250565b7f496e76616c69643a2045786365656420537570706c7900000000000000000000600082015250565b7f455243313135353a207472616e7366657220746f20746865207a65726f20616460008201527f6472657373000000000000000000000000000000000000000000000000000000602082015250565b7f455243313135353a207472616e736665722063616c6c6572206973206e6f742060008201527f6f776e6572206e6f7220617070726f7665640000000000000000000000000000602082015250565b7f455243313135353a206275726e2066726f6d20746865207a65726f206164647260008201527f6573730000000000000000000000000000000000000000000000000000000000602082015250565b7f455243313135353a20696e73756666696369656e742062616c616e636520666f60008201527f72207472616e7366657200000000000000000000000000000000000000000000602082015250565b7f5452414e5346455220464f5242494444454e0000000000000000000000000000600082015250565b7f4f776e61626c653a2063616c6c6572206973206e6f7420746865206f776e6572600082015250565b7f4e4f54204841564520415554484f524954590000000000000000000000000000600082015250565b7f494e53554646494349454e542042414c414e4345000000000000000000000000600082015250565b7f494e56414c49443a20414d4f554e54204e4f5420455849535400000000000000600082015250565b7f496e76616c69643a204e4f5420484f4c44455200000000000000000000000000600082015250565b7f455243313135353a2073657474696e6720617070726f76616c2073746174757360008201527f20666f722073656c660000000000000000000000000000000000000000000000602082015250565b7f455243313135353a206163636f756e747320616e6420696473206c656e67746860008201527f206d69736d617463680000000000000000000000000000000000000000000000602082015250565b7f455243313135353a2069647320616e6420616d6f756e7473206c656e6774682060008201527f6d69736d61746368000000000000000000000000000000000000000000000000602082015250565b7f455243313135353a206d696e7420746f20746865207a65726f2061646472657360008201527f7300000000000000000000000000000000000000000000000000000000000000602082015250565b7f4261646765204e6f742045786973747300000000000000000000000000000000600082015250565b600060443d10156153cc5761544f565b6153d461499d565b60043d036004823e80513d602482011167ffffffffffffffff821117156153fc57505061544f565b808201805167ffffffffffffffff81111561541a575050505061544f565b80602083010160043d03850181111561543757505050505061544f565b61544682602001850186614cb2565b82955050505050505b90565b61545b81614ba6565b811461546657600080fd5b50565b61547281614bb8565b811461547d57600080fd5b50565b61548981614bc4565b811461549457600080fd5b50565b6154a081614c10565b81146154ab57600080fd5b5056fea2646970667358221220a6c1e135e09c42bf171977b7906742afc7656da2eb11e0e1a4a956a1cedc812264736f6c63430008040033",
  "linkReferences": {},
  "deployedLinkReferences": {}
}