{
  "_format": "hh-sol-artifact-1",
  "contractName": "HenkakuKoukan",
  "sourceName": "contracts/HenkakuKoukan.sol",
  "abi": [
    {
      "inputs": [
        {
          "internalType": "address",
          "name": "_v1",
          "type": "address"
        },
        {
          "internalType": "address",
          "name": "_v2",
          "type": "address"
        }
      ],
      "stateMutability": "nonpayable",
      "type": "constructor"
    },
    {
      "anonymous": false,
      "inputs": [
        {
          "indexed": false,
          "internalType": "uint256",
          "name": "amount",
          "type": "uint256"
        },
        {
          "indexed": false,
          "internalType": "address",
          "name": "who",
          "type": "address"
        }
      ],
      "name": "Claim",
      "type": "event"
    },
    {
      "anonymous": false,
      "inputs": [
        {
          "indexed": true,
          "internalType": "address",
          "name": "previousOwner",
          "type": "address"
        },
        {
          "indexed": true,
          "internalType": "address",
          "name": "newOwner",
          "type": "address"
        }
      ],
      "name": "OwnershipTransferred",
      "type": "event"
    },
    {
      "inputs": [],
      "name": "claimV2Token",
      "outputs": [],
      "stateMutability": "nonpayable",
      "type": "function"
    },
    {
      "inputs": [],
      "name": "owner",
      "outputs": [
        {
          "internalType": "address",
          "name": "",
          "type": "address"
        }
      ],
      "stateMutability": "view",
      "type": "function"
    },
    {
      "inputs": [],
      "name": "renounceOwnership",
      "outputs": [],
      "stateMutability": "nonpayable",
      "type": "function"
    },
    {
      "inputs": [
        {
          "internalType": "address",
          "name": "newOwner",
          "type": "address"
        }
      ],
      "name": "transferOwnership",
      "outputs": [],
      "stateMutability": "nonpayable",
      "type": "function"
    },
    {
      "inputs": [],
      "name": "v1Token",
      "outputs": [
        {
          "internalType": "contract IERC20",
          "name": "",
          "type": "address"
        }
      ],
      "stateMutability": "view",
      "type": "function"
    },
    {
      "inputs": [],
      "name": "v2Token",
      "outputs": [
        {
          "internalType": "contract IERC20",
          "name": "",
          "type": "address"
        }
      ],
      "stateMutability": "view",
      "type": "function"
    },
    {
      "inputs": [
        {
          "internalType": "address",
          "name": "token",
          "type": "address"
        }
      ],
      "name": "widthdraw",
      "outputs": [],
      "stateMutability": "nonpayable",
      "type": "function"
    }
  ],
  "bytecode": "0x608060405234801561001057600080fd5b5060405161086d38038061086d83398101604081905261002f916100d5565b61003833610069565b600180546001600160a01b039384166001600160a01b03199182161790915560028054929093169116179055610108565b600080546001600160a01b038381166001600160a01b0319831681178455604051919092169283917f8be0079c531659141344cd1fd0a4f28419497f9722a3daafe3b4186f6b6457e09190a35050565b80516001600160a01b03811681146100d057600080fd5b919050565b600080604083850312156100e857600080fd5b6100f1836100b9565b91506100ff602084016100b9565b90509250929050565b610756806101176000396000f3fe608060405234801561001057600080fd5b506004361061007d5760003560e01c80638a4d61361161005b5780638a4d6136146100c35780638da5cb5b146100d6578063af456cf8146100e7578063f2fde38b146100fa57600080fd5b806309f0d296146100825780630dbbc0aa1461008c578063715018a6146100bb575b600080fd5b61008a61010d565b005b60025461009f906001600160a01b031681565b6040516001600160a01b03909116815260200160405180910390f35b61008a6103c2565b61008a6100d13660046106b5565b6103d6565b6000546001600160a01b031661009f565b60015461009f906001600160a01b031681565b61008a6101083660046106b5565b610592565b6001546040516370a0823160e01b81523360048201526000916001600160a01b0316906370a0823190602401602060405180830381865afa158015610156573d6000803e3d6000fd5b505050506040513d601f19601f8201168201806040525081019061017a91906106e5565b9050600081116101db5760405162461bcd60e51b815260206004820152602160248201527f494e56414c49443a20594f5520444f204e4f54204841564520563120544f4b456044820152602760f91b60648201526084015b60405180910390fd5b6002546040516370a0823160e01b815230600482015282916001600160a01b0316906370a0823190602401602060405180830381865afa158015610223573d6000803e3d6000fd5b505050506040513d601f19601f8201168201806040525081019061024791906106e5565b10156102955760405162461bcd60e51b815260206004820152601c60248201527f494e56414c49443a20494e53554646494349454e5420414d4f554e540000000060448201526064016101d2565b6001546040516323b872dd60e01b8152336004820152306024820152604481018390526001600160a01b03909116906323b872dd906064016020604051808303816000875af11580156102ec573d6000803e3d6000fd5b505050506040513d601f19601f8201168201806040525081019061031091906106fe565b5060025460405163a9059cbb60e01b8152336004820152602481018390526001600160a01b039091169063a9059cbb906044016020604051808303816000875af1158015610362573d6000803e3d6000fd5b505050506040513d601f19601f8201168201806040525081019061038691906106fe565b50604080518281523360208201527f35538759d80c1fd7bb450a0d05601db5a99fa8b5d073a07c847a9fd61029b107910160405180910390a150565b6103ca61060b565b6103d46000610665565b565b6103de61060b565b6040516370a0823160e01b81523060048201526000906001600160a01b038316906370a0823190602401602060405180830381865afa158015610425573d6000803e3d6000fd5b505050506040513d601f19601f8201168201806040525081019061044991906106e5565b116104965760405162461bcd60e51b815260206004820152601b60248201527f494e564c4149443a20494e535546464943454e5420414d4f554e54000000000060448201526064016101d2565b806001600160a01b031663a9059cbb6104b76000546001600160a01b031690565b6040516370a0823160e01b81523060048201526001600160a01b038516906370a0823190602401602060405180830381865afa1580156104fb573d6000803e3d6000fd5b505050506040513d601f19601f8201168201806040525081019061051f91906106e5565b6040516001600160e01b031960e085901b1681526001600160a01b03909216600483015260248201526044016020604051808303816000875af115801561056a573d6000803e3d6000fd5b505050506040513d601f19601f8201168201806040525081019061058e91906106fe565b5050565b61059a61060b565b6001600160a01b0381166105ff5760405162461bcd60e51b815260206004820152602660248201527f4f776e61626c653a206e6577206f776e657220697320746865207a65726f206160448201526564647265737360d01b60648201526084016101d2565b61060881610665565b50565b6000546001600160a01b031633146103d45760405162461bcd60e51b815260206004820181905260248201527f4f776e61626c653a2063616c6c6572206973206e6f7420746865206f776e657260448201526064016101d2565b600080546001600160a01b038381166001600160a01b0319831681178455604051919092169283917f8be0079c531659141344cd1fd0a4f28419497f9722a3daafe3b4186f6b6457e09190a35050565b6000602082840312156106c757600080fd5b81356001600160a01b03811681146106de57600080fd5b9392505050565b6000602082840312156106f757600080fd5b5051919050565b60006020828403121561071057600080fd5b815180151581146106de57600080fdfea26469706673582212209baa56d362d1464863529f2b47d37c1715809cb166f5a95311d406c17a58288564736f6c63430008110033",
  "linkReferences": {},
  "deployedLinkReferences": {}
}