{
  "_format": "hh-sol-artifact-1",
  "contractName": "PodCastNFT",
  "sourceName": "contracts/PodCastNFT.sol",
  "abi": [
    {
      "inputs": [
        {
          "internalType": "address",
          "name": "_erc20",
          "type": "address"
        },
        {
          "internalType": "address",
          "name": "_fundAddress",
          "type": "address"
        }
      ],
      "stateMutability": "nonpayable",
      "type": "constructor"
    },
    {
      "anonymous": false,
      "inputs": [
        {
          "indexed": true,
          "internalType": "address",
          "name": "owner",
          "type": "address"
        },
        {
          "indexed": true,
          "internalType": "address",
          "name": "approved",
          "type": "address"
        },
        {
          "indexed": true,
          "internalType": "uint256",
          "name": "tokenId",
          "type": "uint256"
        }
      ],
      "name": "Approval",
      "type": "event"
    },
    {
      "anonymous": false,
      "inputs": [
        {
          "indexed": true,
          "internalType": "address",
          "name": "owner",
          "type": "address"
        },
        {
          "indexed": true,
          "internalType": "address",
          "name": "operator",
          "type": "address"
        },
        {
          "indexed": false,
          "internalType": "bool",
          "name": "approved",
          "type": "bool"
        }
      ],
      "name": "ApprovalForAll",
      "type": "event"
    },
    {
      "anonymous": false,
      "inputs": [
        {
          "indexed": false,
          "internalType": "address",
          "name": "_owner",
          "type": "address"
        },
        {
          "indexed": false,
          "internalType": "uint256",
          "name": "_amount",
          "type": "uint256"
        }
      ],
      "name": "BoughtMemberShipNFT",
      "type": "event"
    },
    {
      "anonymous": false,
      "inputs": [
        {
          "indexed": false,
          "internalType": "address",
          "name": "_by",
          "type": "address"
        },
        {
          "indexed": false,
          "internalType": "uint256",
          "name": "_at",
          "type": "uint256"
        }
      ],
      "name": "CheckedAnswer",
      "type": "event"
    },
    {
      "anonymous": false,
      "inputs": [
        {
          "indexed": false,
          "internalType": "address",
          "name": "_by",
          "type": "address"
        },
        {
          "indexed": false,
          "internalType": "uint256",
          "name": "_amount",
          "type": "uint256"
        }
      ],
      "name": "ClaimedToken",
      "type": "event"
    },
    {
      "anonymous": false,
      "inputs": [
        {
          "indexed": true,
          "internalType": "address",
          "name": "previousOwner",
          "type": "address"
        },
        {
          "indexed": true,
          "internalType": "address",
          "name": "newOwner",
          "type": "address"
        }
      ],
      "name": "OwnershipTransferred",
      "type": "event"
    },
    {
      "anonymous": false,
      "inputs": [
        {
          "indexed": true,
          "internalType": "address",
          "name": "from",
          "type": "address"
        },
        {
          "indexed": true,
          "internalType": "address",
          "name": "to",
          "type": "address"
        },
        {
          "indexed": true,
          "internalType": "uint256",
          "name": "tokenId",
          "type": "uint256"
        }
      ],
      "name": "Transfer",
      "type": "event"
    },
    {
      "inputs": [
        {
          "internalType": "uint256",
          "name": "",
          "type": "uint256"
        }
      ],
      "name": "_tokenURIs",
      "outputs": [
        {
          "internalType": "string",
          "name": "",
          "type": "string"
        }
      ],
      "stateMutability": "view",
      "type": "function"
    },
    {
      "inputs": [
        {
          "internalType": "address",
          "name": "_to",
          "type": "address"
        },
        {
          "internalType": "string",
          "name": "_role",
          "type": "string"
        }
      ],
      "name": "addRole",
      "outputs": [],
      "stateMutability": "nonpayable",
      "type": "function"
    },
    {
      "inputs": [
        {
          "internalType": "address",
          "name": "to",
          "type": "address"
        },
        {
          "internalType": "uint256",
          "name": "tokenId",
          "type": "uint256"
        }
      ],
      "name": "approve",
      "outputs": [],
      "stateMutability": "nonpayable",
      "type": "function"
    },
    {
      "inputs": [
        {
          "internalType": "address",
          "name": "owner",
          "type": "address"
        }
      ],
      "name": "balanceOf",
      "outputs": [
        {
          "internalType": "uint256",
          "name": "",
          "type": "uint256"
        }
      ],
      "stateMutability": "view",
      "type": "function"
    },
    {
      "inputs": [
        {
          "internalType": "uint256",
          "name": "_tokenId",
          "type": "uint256"
        }
      ],
      "name": "burn",
      "outputs": [],
      "stateMutability": "nonpayable",
      "type": "function"
    },
    {
      "inputs": [
        {
          "internalType": "string",
          "name": "_keyword",
          "type": "string"
        }
      ],
      "name": "checkAnswer",
      "outputs": [],
      "stateMutability": "nonpayable",
      "type": "function"
    },
    {
      "inputs": [],
      "name": "claimToken",
      "outputs": [],
      "stateMutability": "nonpayable",
      "type": "function"
    },
    {
      "inputs": [],
      "name": "fundAddress",
      "outputs": [
        {
          "internalType": "address",
          "name": "",
          "type": "address"
        }
      ],
      "stateMutability": "view",
      "type": "function"
    },
    {
      "inputs": [
        {
          "internalType": "uint256",
          "name": "tokenId",
          "type": "uint256"
        }
      ],
      "name": "getApproved",
      "outputs": [
        {
          "internalType": "address",
          "name": "",
          "type": "address"
        }
      ],
      "stateMutability": "view",
      "type": "function"
    },
    {
      "inputs": [
        {
          "internalType": "address",
          "name": "_to",
          "type": "address"
        },
        {
          "internalType": "uint256",
          "name": "_point",
          "type": "uint256"
        },
        {
          "internalType": "uint256",
          "name": "_claimableToken",
          "type": "uint256"
        }
      ],
      "name": "giveAwayPoint",
      "outputs": [],
      "stateMutability": "nonpayable",
      "type": "function"
    },
    {
      "inputs": [
        {
          "internalType": "address",
          "name": "_address",
          "type": "address"
        },
        {
          "internalType": "string",
          "name": "_role",
          "type": "string"
        }
      ],
      "name": "hasRoleOf",
      "outputs": [
        {
          "internalType": "bool",
          "name": "",
          "type": "bool"
        }
      ],
      "stateMutability": "view",
      "type": "function"
    },
    {
      "inputs": [],
      "name": "henkakuToken",
      "outputs": [
        {
          "internalType": "contract IERC20",
          "name": "",
          "type": "address"
        }
      ],
      "stateMutability": "view",
      "type": "function"
    },
    {
      "inputs": [
        {
          "internalType": "address",
          "name": "owner",
          "type": "address"
        },
        {
          "internalType": "address",
          "name": "operator",
          "type": "address"
        }
      ],
      "name": "isApprovedForAll",
      "outputs": [
        {
          "internalType": "bool",
          "name": "",
          "type": "bool"
        }
      ],
      "stateMutability": "view",
      "type": "function"
    },
    {
      "inputs": [
        {
          "internalType": "string",
          "name": "_tokenURI",
          "type": "string"
        },
        {
          "internalType": "string[]",
          "name": "_roles",
          "type": "string[]"
        },
        {
          "internalType": "address",
          "name": "_to",
          "type": "address"
        }
      ],
      "name": "mint",
      "outputs": [
        {
          "internalType": "uint256",
          "name": "",
          "type": "uint256"
        }
      ],
      "stateMutability": "nonpayable",
      "type": "function"
    },
    {
      "inputs": [
        {
          "internalType": "string",
          "name": "_tokenURI",
          "type": "string"
        },
        {
          "internalType": "uint256",
          "name": "_amount",
          "type": "uint256"
        }
      ],
      "name": "mintWithHenkaku",
      "outputs": [],
      "stateMutability": "nonpayable",
      "type": "function"
    },
    {
      "inputs": [],
      "name": "name",
      "outputs": [
        {
          "internalType": "string",
          "name": "",
          "type": "string"
        }
      ],
      "stateMutability": "view",
      "type": "function"
    },
    {
      "inputs": [],
      "name": "owner",
      "outputs": [
        {
          "internalType": "address",
          "name": "",
          "type": "address"
        }
      ],
      "stateMutability": "view",
      "type": "function"
    },
    {
      "inputs": [
        {
          "internalType": "uint256",
          "name": "tokenId",
          "type": "uint256"
        }
      ],
      "name": "ownerOf",
      "outputs": [
        {
          "internalType": "address",
          "name": "",
          "type": "address"
        }
      ],
      "stateMutability": "view",
      "type": "function"
    },
    {
      "inputs": [],
      "name": "price",
      "outputs": [
        {
          "internalType": "uint256",
          "name": "",
          "type": "uint256"
        }
      ],
      "stateMutability": "view",
      "type": "function"
    },
    {
      "inputs": [],
      "name": "renounceOwnership",
      "outputs": [],
      "stateMutability": "nonpayable",
      "type": "function"
    },
    {
      "inputs": [],
      "name": "rewardHenkaku",
      "outputs": [
        {
          "internalType": "uint256",
          "name": "",
          "type": "uint256"
        }
      ],
      "stateMutability": "view",
      "type": "function"
    },
    {
      "inputs": [],
      "name": "rewardPoint",
      "outputs": [
        {
          "internalType": "uint256",
          "name": "",
          "type": "uint256"
        }
      ],
      "stateMutability": "view",
      "type": "function"
    },
    {
      "inputs": [
        {
          "internalType": "address",
          "name": "",
          "type": "address"
        },
        {
          "internalType": "uint256",
          "name": "",
          "type": "uint256"
        }
      ],
      "name": "roles",
      "outputs": [
        {
          "internalType": "string",
          "name": "",
          "type": "string"
        }
      ],
      "stateMutability": "view",
      "type": "function"
    },
    {
      "inputs": [
        {
          "internalType": "address",
          "name": "from",
          "type": "address"
        },
        {
          "internalType": "address",
          "name": "to",
          "type": "address"
        },
        {
          "internalType": "uint256",
          "name": "tokenId",
          "type": "uint256"
        }
      ],
      "name": "safeTransferFrom",
      "outputs": [],
      "stateMutability": "nonpayable",
      "type": "function"
    },
    {
      "inputs": [
        {
          "internalType": "address",
          "name": "from",
          "type": "address"
        },
        {
          "internalType": "address",
          "name": "to",
          "type": "address"
        },
        {
          "internalType": "uint256",
          "name": "tokenId",
          "type": "uint256"
        },
        {
          "internalType": "bytes",
          "name": "_data",
          "type": "bytes"
        }
      ],
      "name": "safeTransferFrom",
      "outputs": [],
      "stateMutability": "nonpayable",
      "type": "function"
    },
    {
      "inputs": [
        {
          "internalType": "address",
          "name": "operator",
          "type": "address"
        },
        {
          "internalType": "bool",
          "name": "approved",
          "type": "bool"
        }
      ],
      "name": "setApprovalForAll",
      "outputs": [],
      "stateMutability": "nonpayable",
      "type": "function"
    },
    {
      "inputs": [
        {
          "internalType": "address",
          "name": "_fundAddress",
          "type": "address"
        }
      ],
      "name": "setFundAddress",
      "outputs": [],
      "stateMutability": "nonpayable",
      "type": "function"
    },
    {
      "inputs": [
        {
          "internalType": "string",
          "name": "_keyword",
          "type": "string"
        },
        {
          "internalType": "uint256",
          "name": "startedAt",
          "type": "uint256"
        }
      ],
      "name": "setKeyword",
      "outputs": [],
      "stateMutability": "nonpayable",
      "type": "function"
    },
    {
      "inputs": [
        {
          "internalType": "uint256",
          "name": "_price",
          "type": "uint256"
        }
      ],
      "name": "setPrice",
      "outputs": [],
      "stateMutability": "nonpayable",
      "type": "function"
    },
    {
      "inputs": [
        {
          "internalType": "uint256",
          "name": "_rewardHenkaku",
          "type": "uint256"
        }
      ],
      "name": "setRewardHenkaku",
      "outputs": [],
      "stateMutability": "nonpayable",
      "type": "function"
    },
    {
      "inputs": [
        {
          "internalType": "uint256",
          "name": "_rewardPoint",
          "type": "uint256"
        }
      ],
      "name": "setRewardPoint",
      "outputs": [],
      "stateMutability": "nonpayable",
      "type": "function"
    },
    {
      "inputs": [
        {
          "internalType": "address",
          "name": "_to",
          "type": "address"
        },
        {
          "internalType": "string[]",
          "name": "_roles",
          "type": "string[]"
        }
      ],
      "name": "setRoles",
      "outputs": [],
      "stateMutability": "nonpayable",
      "type": "function"
    },
    {
      "inputs": [
        {
          "internalType": "bytes4",
          "name": "interfaceId",
          "type": "bytes4"
        }
      ],
      "name": "supportsInterface",
      "outputs": [
        {
          "internalType": "bool",
          "name": "",
          "type": "bool"
        }
      ],
      "stateMutability": "view",
      "type": "function"
    },
    {
      "inputs": [],
      "name": "symbol",
      "outputs": [
        {
          "internalType": "string",
          "name": "",
          "type": "string"
        }
      ],
      "stateMutability": "view",
      "type": "function"
    },
    {
      "inputs": [
        {
          "internalType": "uint256",
          "name": "tokenId",
          "type": "uint256"
        }
      ],
      "name": "tokenURI",
      "outputs": [
        {
          "internalType": "string",
          "name": "",
          "type": "string"
        }
      ],
      "stateMutability": "view",
      "type": "function"
    },
    {
      "inputs": [],
      "name": "totalSupply",
      "outputs": [
        {
          "internalType": "uint256",
          "name": "",
          "type": "uint256"
        }
      ],
      "stateMutability": "view",
      "type": "function"
    },
    {
      "inputs": [
        {
          "internalType": "address",
          "name": "_from",
          "type": "address"
        },
        {
          "internalType": "address",
          "name": "_to",
          "type": "address"
        },
        {
          "internalType": "uint256",
          "name": "_tokenId",
          "type": "uint256"
        }
      ],
      "name": "transferFrom",
      "outputs": [],
      "stateMutability": "nonpayable",
      "type": "function"
    },
    {
      "inputs": [
        {
          "internalType": "address",
          "name": "newOwner",
          "type": "address"
        }
      ],
      "name": "transferOwnership",
      "outputs": [],
      "stateMutability": "nonpayable",
      "type": "function"
    },
    {
      "inputs": [
        {
          "internalType": "uint256",
          "name": "tokenId",
          "type": "uint256"
        },
        {
          "internalType": "string",
          "name": "_point",
          "type": "string"
        }
      ],
      "name": "updateNFT",
      "outputs": [],
      "stateMutability": "nonpayable",
      "type": "function"
    },
    {
      "inputs": [
        {
          "internalType": "string",
          "name": "_imageURI",
          "type": "string"
        },
        {
          "internalType": "string",
          "name": "name",
          "type": "string"
        }
      ],
      "name": "updateOwnNFT",
      "outputs": [],
      "stateMutability": "nonpayable",
      "type": "function"
    },
    {
      "inputs": [
        {
          "internalType": "address",
          "name": "",
          "type": "address"
        }
      ],
      "name": "userAttribute",
      "outputs": [
        {
          "internalType": "uint256",
          "name": "point",
          "type": "uint256"
        },
        {
          "internalType": "uint256",
          "name": "claimableToken",
          "type": "uint256"
        },
        {
          "internalType": "uint256",
          "name": "answeredAt",
          "type": "uint256"
        }
      ],
      "stateMutability": "view",
      "type": "function"
    },
    {
      "inputs": [],
      "name": "withdraw",
      "outputs": [],
      "stateMutability": "nonpayable",
      "type": "function"
    }
  ],
  "bytecode": "0x60806040523480156200001157600080fd5b5060405162005fd138038062005fd1833981810160405281019062000037919062000690565b6040518060400160405280600c81526020017f48656e6b616b752076302e3200000000000000000000000000000000000000008152506040518060400160405280600781526020017f68656e6b616b75000000000000000000000000000000000000000000000000008152508160009080519060200190620000bb929190620005c9565b508060019080519060200190620000d4929190620005c9565b505050620000f7620000eb6200019760201b60201c565b6200019f60201b60201c565b81600860006101000a81548173ffffffffffffffffffffffffffffffffffffffff021916908373ffffffffffffffffffffffffffffffffffffffff16021790555062000152683635c9adc5dea000006200026560201b60201c565b6200016460646200034c60201b60201c565b6200017e68056bc75e2d63100000620003e560201b60201c565b6200018f81620004cc60201b60201c565b505062000879565b600033905090565b6000600660009054906101000a900473ffffffffffffffffffffffffffffffffffffffff16905081600660006101000a81548173ffffffffffffffffffffffffffffffffffffffff021916908373ffffffffffffffffffffffffffffffffffffffff1602179055508173ffffffffffffffffffffffffffffffffffffffff168173ffffffffffffffffffffffffffffffffffffffff167f8be0079c531659141344cd1fd0a4f28419497f9722a3daafe3b4186f6b6457e060405160405180910390a35050565b620002756200019760201b60201c565b73ffffffffffffffffffffffffffffffffffffffff166200029b6200059f60201b60201c565b73ffffffffffffffffffffffffffffffffffffffff1614620002f4576040517f08c379a0000000000000000000000000000000000000000000000000000000008152600401620002eb906200071f565b60405180910390fd5b670de0b6b3a764000081101562000342576040517f08c379a0000000000000000000000000000000000000000000000000000000008152600401620003399062000741565b60405180910390fd5b8060098190555050565b6200035c6200019760201b60201c565b73ffffffffffffffffffffffffffffffffffffffff16620003826200059f60201b60201c565b73ffffffffffffffffffffffffffffffffffffffff1614620003db576040517f08c379a0000000000000000000000000000000000000000000000000000000008152600401620003d2906200071f565b60405180910390fd5b80600a8190555050565b620003f56200019760201b60201c565b73ffffffffffffffffffffffffffffffffffffffff166200041b6200059f60201b60201c565b73ffffffffffffffffffffffffffffffffffffffff161462000474576040517f08c379a00000000000000000000000000000000000000000000000000000000081526004016200046b906200071f565b60405180910390fd5b670de0b6b3a7640000811015620004c2576040517f08c379a0000000000000000000000000000000000000000000000000000000008152600401620004b99062000741565b60405180910390fd5b80600b8190555050565b620004dc6200019760201b60201c565b73ffffffffffffffffffffffffffffffffffffffff16620005026200059f60201b60201c565b73ffffffffffffffffffffffffffffffffffffffff16146200055b576040517f08c379a000000000000000000000000000000000000000000000000000000000815260040162000552906200071f565b60405180910390fd5b80600c60006101000a81548173ffffffffffffffffffffffffffffffffffffffff021916908373ffffffffffffffffffffffffffffffffffffffff16021790555050565b6000600660009054906101000a900473ffffffffffffffffffffffffffffffffffffffff16905090565b828054620005d790620007a8565b90600052602060002090601f016020900481019282620005fb576000855562000647565b82601f106200061657805160ff191683800117855562000647565b8280016001018555821562000647579182015b828111156200064657825182559160200191906001019062000629565b5b5090506200065691906200065a565b5090565b5b80821115620006755760008160009055506001016200065b565b5090565b6000815190506200068a816200085f565b92915050565b60008060408385031215620006a457600080fd5b6000620006b48582860162000679565b9250506020620006c78582860162000679565b9150509250929050565b6000620006e060208362000763565b9150620006ed826200080d565b602082019050919050565b60006200070760108362000763565b9150620007148262000836565b602082019050919050565b600060208201905081810360008301526200073a81620006d1565b9050919050565b600060208201905081810360008301526200075c81620006f8565b9050919050565b600082825260208201905092915050565b6000620007818262000788565b9050919050565b600073ffffffffffffffffffffffffffffffffffffffff82169050919050565b60006002820490506001821680620007c157607f821691505b60208210811415620007d857620007d7620007de565b5b50919050565b7f4e487b7100000000000000000000000000000000000000000000000000000000600052602260045260246000fd5b7f4f776e61626c653a2063616c6c6572206973206e6f7420746865206f776e6572600082015250565b7f4d55535420424520475445203165313800000000000000000000000000000000600082015250565b6200086a8162000774565b81146200087657600080fd5b50565b61574880620008896000396000f3fe608060405234801561001057600080fd5b506004361061025e5760003560e01c806381c95fd211610146578063b52bd9c6116100c3578063e82bef2911610087578063e82bef29146106cf578063e985e9c5146106ed578063f0723d971461071d578063f09d31df1461074d578063f2fde38b14610769578063fc70d5fd146107855761025e565b8063b52bd9c61461062d578063b88d4fde14610649578063c318d8f814610665578063c68b9dfa14610681578063c87b56dd1461069f5761025e565b806395d89b411161010a57806395d89b41146105875780639c0a71de146105a5578063a035b1fe146105c1578063a22cb465146105df578063a53696ac146105fb5761025e565b806381c95fd2146104f957806385dc3004146105155780638da5cb5b1461053157806391b7f5ed1461054f57806391c558551461056b5761025e565b80633ccfd60b116101df5780636352211e116101a35780636352211e146104395780636e8b2a481461046957806370a0823114610485578063715018a6146104b55780637d72aa65146104bf578063809a6cd6146104db5761025e565b80633ccfd60b146103bd57806342842e0e146103c757806342966c68146103e35780634451d89f146103ff5780635d764b3e146104095761025e565b806318160ddd1161022657806318160ddd1461032d57806320d83a061461034b57806323b872dd146103695780633451eee814610385578063373a8c0e146103a15761025e565b806301ffc9a71461026357806306fdde0314610293578063081812fc146102b1578063095ea7b3146102e15780630bb78ec1146102fd575b600080fd5b61027d600480360381019061027891906141df565b6107b5565b60405161028a919061497f565b60405180910390f35b61029b610897565b6040516102a891906149b5565b60405180910390f35b6102cb60048036038101906102c691906143b1565b610929565b6040516102d891906148b8565b60405180910390f35b6102fb60048036038101906102f6919061412b565b6109ae565b005b610317600480360381019061031291906143b1565b610ac6565b60405161032491906149b5565b60405180910390f35b610335610b66565b6040516103429190614cf7565b60405180910390f35b610353610b77565b6040516103609190614cf7565b60405180910390f35b610383600480360381019061037e9190613f7d565b610b7d565b005b61039f600480360381019061039a91906143b1565b610c09565b005b6103bb60048036038101906103b691906142f1565b610c8f565b005b6103c5610c93565b005b6103e160048036038101906103dc9190613f7d565b610ed7565b005b6103fd60048036038101906103f891906143b1565b610ef7565b005b610407610f7f565b005b610423600480360381019061041e91906140d7565b6112bc565b604051610430919061497f565b60405180910390f35b610453600480360381019061044e91906143b1565b61145d565b60405161046091906148b8565b60405180910390f35b610483600480360381019061047e919061435d565b61150f565b005b61049f600480360381019061049a9190613f18565b611896565b6040516104ac9190614cf7565b60405180910390f35b6104bd61194e565b005b6104d960048036038101906104d491906140d7565b6119d6565b005b6104e3611b1d565b6040516104f0919061499a565b60405180910390f35b610513600480360381019061050e91906143b1565b611b43565b005b61052f600480360381019061052a9190613f18565b611c14565b005b610539611cd4565b60405161054691906148b8565b60405180910390f35b610569600480360381019061056491906143b1565b611cfe565b005b61058560048036038101906105809190614047565b611dcf565b005b61058f611ef1565b60405161059c91906149b5565b60405180910390f35b6105bf60048036038101906105ba9190614167565b611f83565b005b6105c9612104565b6040516105d69190614cf7565b60405180910390f35b6105f960048036038101906105f4919061409b565b61210a565b005b61061560048036038101906106109190613f18565b612120565b60405161062493929190614d12565b60405180910390f35b61064760048036038101906106429190614231565b61214a565b005b610663600480360381019061065e9190613fcc565b61240a565b005b61067f600480360381019061067a9190614403565b61246c565b005b610689612591565b6040516106969190614cf7565b60405180910390f35b6106b960048036038101906106b491906143b1565b612597565b6040516106c691906149b5565b60405180910390f35b6106d7612686565b6040516106e491906148b8565b60405180910390f35b61070760048036038101906107029190613f41565b6126ac565b604051610714919061497f565b60405180910390f35b6107376004803603810190610732919061412b565b612740565b60405161074491906149b5565b60405180910390f35b6107676004803603810190610762919061435d565b6127f9565b005b610783600480360381019061077e9190613f18565b6128cd565b005b61079f600480360381019061079a9190614272565b6129c5565b6040516107ac9190614cf7565b60405180910390f35b60007f80ac58cd000000000000000000000000000000000000000000000000000000007bffffffffffffffffffffffffffffffffffffffffffffffffffffffff1916827bffffffffffffffffffffffffffffffffffffffffffffffffffffffff1916148061088057507f5b5e139f000000000000000000000000000000000000000000000000000000007bffffffffffffffffffffffffffffffffffffffffffffffffffffffff1916827bffffffffffffffffffffffffffffffffffffffffffffffffffffffff1916145b80610890575061088f82612aa4565b5b9050919050565b6060600080546108a690614fa3565b80601f01602080910402602001604051908101604052809291908181526020018280546108d290614fa3565b801561091f5780601f106108f45761010080835404028352916020019161091f565b820191906000526020600020905b81548152906001019060200180831161090257829003601f168201915b5050505050905090565b600061093482612b0e565b610973576040517f08c379a000000000000000000000000000000000000000000000000000000000815260040161096a90614bb7565b60405180910390fd5b6004600083815260200190815260200160002060009054906101000a900473ffffffffffffffffffffffffffffffffffffffff169050919050565b60006109b98261145d565b90508073ffffffffffffffffffffffffffffffffffffffff168373ffffffffffffffffffffffffffffffffffffffff161415610a2a576040517f08c379a0000000000000000000000000000000000000000000000000000000008152600401610a2190614c57565b60405180910390fd5b8073ffffffffffffffffffffffffffffffffffffffff16610a49612b7a565b73ffffffffffffffffffffffffffffffffffffffff161480610a785750610a7781610a72612b7a565b6126ac565b5b610ab7576040517f08c379a0000000000000000000000000000000000000000000000000000000008152600401610aae90614af7565b60405180910390fd5b610ac18383612b82565b505050565b600f6020528060005260406000206000915090508054610ae590614fa3565b80601f0160208091040260200160405190810160405280929190818152602001828054610b1190614fa3565b8015610b5e5780601f10610b3357610100808354040283529160200191610b5e565b820191906000526020600020905b815481529060010190602001808311610b4157829003601f168201915b505050505081565b6000610b726007612c3b565b905090565b600b5481565b610b85612b7a565b73ffffffffffffffffffffffffffffffffffffffff16610ba3611cd4565b73ffffffffffffffffffffffffffffffffffffffff1614610bf9576040517f08c379a0000000000000000000000000000000000000000000000000000000008152600401610bf090614bf7565b60405180910390fd5b610c04838383612c49565b505050565b610c11612b7a565b73ffffffffffffffffffffffffffffffffffffffff16610c2f611cd4565b73ffffffffffffffffffffffffffffffffffffffff1614610c85576040517f08c379a0000000000000000000000000000000000000000000000000000000008152600401610c7c90614bf7565b60405180910390fd5b80600a8190555050565b5050565b610c9b612b7a565b73ffffffffffffffffffffffffffffffffffffffff16610cb9611cd4565b73ffffffffffffffffffffffffffffffffffffffff1614610d0f576040517f08c379a0000000000000000000000000000000000000000000000000000000008152600401610d0690614bf7565b60405180910390fd5b6000600860009054906101000a900473ffffffffffffffffffffffffffffffffffffffff1673ffffffffffffffffffffffffffffffffffffffff166370a08231306040518263ffffffff1660e01b8152600401610d6c91906148b8565b60206040518083038186803b158015610d8457600080fd5b505afa158015610d98573d6000803e3d6000fd5b505050506040513d601f19601f82011682018060405250810190610dbc91906143da565b90506000600860009054906101000a900473ffffffffffffffffffffffffffffffffffffffff1673ffffffffffffffffffffffffffffffffffffffff1663a9059cbb600c60009054906101000a900473ffffffffffffffffffffffffffffffffffffffff16846040518363ffffffff1660e01b8152600401610e3f929190614956565b602060405180830381600087803b158015610e5957600080fd5b505af1158015610e6d573d6000803e3d6000fd5b505050506040513d601f19601f82011682018060405250810190610e9191906141b6565b905080610ed3576040517f08c379a0000000000000000000000000000000000000000000000000000000008152600401610eca906149d7565b60405180910390fd5b5050565b610ef28383836040518060200160405280600081525061240a565b505050565b610eff612b7a565b73ffffffffffffffffffffffffffffffffffffffff16610f1d611cd4565b73ffffffffffffffffffffffffffffffffffffffff1614610f73576040517f08c379a0000000000000000000000000000000000000000000000000000000008152600401610f6a90614bf7565b60405180910390fd5b610f7c81612eb0565b50565b336000610f8b82611896565b1415610fcc576040517f08c379a0000000000000000000000000000000000000000000000000000000008152600401610fc390614cd7565b60405180910390fd5b6000601160003373ffffffffffffffffffffffffffffffffffffffff1673ffffffffffffffffffffffffffffffffffffffff16815260200190815260200160002060010154905060008111611056576040517f08c379a000000000000000000000000000000000000000000000000000000000815260040161104d90614a37565b60405180910390fd5b80600860009054906101000a900473ffffffffffffffffffffffffffffffffffffffff1673ffffffffffffffffffffffffffffffffffffffff166370a08231306040518263ffffffff1660e01b81526004016110b291906148b8565b60206040518083038186803b1580156110ca57600080fd5b505afa1580156110de573d6000803e3d6000fd5b505050506040513d601f19601f8201168201806040525081019061110291906143da565b1015611143576040517f08c379a000000000000000000000000000000000000000000000000000000000815260040161113a90614c17565b60405180910390fd5b6000600860009054906101000a900473ffffffffffffffffffffffffffffffffffffffff1673ffffffffffffffffffffffffffffffffffffffff1663a9059cbb33846040518363ffffffff1660e01b81526004016111a2929190614956565b602060405180830381600087803b1580156111bc57600080fd5b505af11580156111d0573d6000803e3d6000fd5b505050506040513d601f19601f820116820180604052508101906111f491906141b6565b905080611236576040517f08c379a000000000000000000000000000000000000000000000000000000000815260040161122d906149d7565b60405180910390fd5b6000601160003373ffffffffffffffffffffffffffffffffffffffff1673ffffffffffffffffffffffffffffffffffffffff168152602001908152602001600020600101819055507f9f2482fecb753a122941f19538876a5b4fdc080a83d01c5f28edde774561cc7433836040516112af929190614956565b60405180910390a1505050565b600080601060008573ffffffffffffffffffffffffffffffffffffffff1673ffffffffffffffffffffffffffffffffffffffff168152602001908152602001600020805480602002602001604051908101604052809291908181526020016000905b828210156113ca57838290600052602060002001805461133d90614fa3565b80601f016020809104026020016040519081016040528092919081815260200182805461136990614fa3565b80156113b65780601f1061138b576101008083540402835291602001916113b6565b820191906000526020600020905b81548152906001019060200180831161139957829003601f168201915b50505050508152602001906001019061131e565b50505050905060005b815181101561145057838051906020012082828151811061141d577f4e487b7100000000000000000000000000000000000000000000000000000000600052603260045260246000fd5b602002602001015180519060200120141561143d57600192505050611457565b808061144890615006565b9150506113d3565b5060009150505b92915050565b6000806002600084815260200190815260200160002060009054906101000a900473ffffffffffffffffffffffffffffffffffffffff169050600073ffffffffffffffffffffffffffffffffffffffff168173ffffffffffffffffffffffffffffffffffffffff161415611506576040517f08c379a00000000000000000000000000000000000000000000000000000000081526004016114fd90614b77565b60405180910390fd5b80915050919050565b816000815111611554576040517f08c379a000000000000000000000000000000000000000000000000000000000815260040161154b90614c77565b60405180910390fd5b33600061156082611896565b146115a0576040517f08c379a000000000000000000000000000000000000000000000000000000000815260040161159790614b17565b60405180910390fd5b6009548310156115e5576040517f08c379a00000000000000000000000000000000000000000000000000000000081526004016115dc90614a37565b60405180910390fd5b6000600860009054906101000a900473ffffffffffffffffffffffffffffffffffffffff1673ffffffffffffffffffffffffffffffffffffffff166323b872dd3330876040518463ffffffff1660e01b8152600401611646939291906148d3565b602060405180830381600087803b15801561166057600080fd5b505af1158015611674573d6000803e3d6000fd5b505050506040513d601f19601f8201168201806040525081019061169891906141b6565b9050806116da576040517f08c379a00000000000000000000000000000000000000000000000000000000081526004016116d1906149d7565b60405180910390fd5b6000600267ffffffffffffffff81111561171d577f4e487b7100000000000000000000000000000000000000000000000000000000600052604160045260246000fd5b60405190808252806020026020018201604052801561175057816020015b606081526020019060019003908161173b5790505b5090506040518060400160405280600681526020017f4d454d4245520000000000000000000000000000000000000000000000000000815250816000815181106117c3577f4e487b7100000000000000000000000000000000000000000000000000000000600052603260045260246000fd5b60200260200101819052506040518060400160405280600681526020017f4d494e54455200000000000000000000000000000000000000000000000000008152508160018151811061183e577f4e487b7100000000000000000000000000000000000000000000000000000000600052603260045260246000fd5b6020026020010181905250611854868233612fcd565b507f0ba0a4f7c9cffadda8819a89af023adc6cea0f94e3b91ec4dd2544993a2ad8d83386604051611886929190614956565b60405180910390a1505050505050565b60008073ffffffffffffffffffffffffffffffffffffffff168273ffffffffffffffffffffffffffffffffffffffff161415611907576040517f08c379a00000000000000000000000000000000000000000000000000000000081526004016118fe90614b57565b60405180910390fd5b600360008373ffffffffffffffffffffffffffffffffffffffff1673ffffffffffffffffffffffffffffffffffffffff168152602001908152602001600020549050919050565b611956612b7a565b73ffffffffffffffffffffffffffffffffffffffff16611974611cd4565b73ffffffffffffffffffffffffffffffffffffffff16146119ca576040517f08c379a00000000000000000000000000000000000000000000000000000000081526004016119c190614bf7565b60405180910390fd5b6119d460006130a7565b565b6119de612b7a565b73ffffffffffffffffffffffffffffffffffffffff166119fc611cd4565b73ffffffffffffffffffffffffffffffffffffffff1614611a52576040517f08c379a0000000000000000000000000000000000000000000000000000000008152600401611a4990614bf7565b60405180910390fd5b816000611a5e82611896565b1415611a9f576040517f08c379a0000000000000000000000000000000000000000000000000000000008152600401611a9690614cd7565b60405180910390fd5b601060008473ffffffffffffffffffffffffffffffffffffffff1673ffffffffffffffffffffffffffffffffffffffff16815260200190815260200160002082908060018154018082558091505060019003906000526020600020016000909190919091509080519060200190611b17929190613a88565b50505050565b600860009054906101000a900473ffffffffffffffffffffffffffffffffffffffff1681565b611b4b612b7a565b73ffffffffffffffffffffffffffffffffffffffff16611b69611cd4565b73ffffffffffffffffffffffffffffffffffffffff1614611bbf576040517f08c379a0000000000000000000000000000000000000000000000000000000008152600401611bb690614bf7565b60405180910390fd5b670de0b6b3a7640000811015611c0a576040517f08c379a0000000000000000000000000000000000000000000000000000000008152600401611c0190614c37565b60405180910390fd5b80600b8190555050565b611c1c612b7a565b73ffffffffffffffffffffffffffffffffffffffff16611c3a611cd4565b73ffffffffffffffffffffffffffffffffffffffff1614611c90576040517f08c379a0000000000000000000000000000000000000000000000000000000008152600401611c8790614bf7565b60405180910390fd5b80600c60006101000a81548173ffffffffffffffffffffffffffffffffffffffff021916908373ffffffffffffffffffffffffffffffffffffffff16021790555050565b6000600660009054906101000a900473ffffffffffffffffffffffffffffffffffffffff16905090565b611d06612b7a565b73ffffffffffffffffffffffffffffffffffffffff16611d24611cd4565b73ffffffffffffffffffffffffffffffffffffffff1614611d7a576040517f08c379a0000000000000000000000000000000000000000000000000000000008152600401611d7190614bf7565b60405180910390fd5b670de0b6b3a7640000811015611dc5576040517f08c379a0000000000000000000000000000000000000000000000000000000008152600401611dbc90614c37565b60405180910390fd5b8060098190555050565b611dd7612b7a565b73ffffffffffffffffffffffffffffffffffffffff16611df5611cd4565b73ffffffffffffffffffffffffffffffffffffffff1614611e4b576040517f08c379a0000000000000000000000000000000000000000000000000000000008152600401611e4290614bf7565b60405180910390fd5b816000611e5782611896565b1415611e98576040517f08c379a0000000000000000000000000000000000000000000000000000000008152600401611e8f90614cd7565b60405180910390fd5b81601060008573ffffffffffffffffffffffffffffffffffffffff1673ffffffffffffffffffffffffffffffffffffffff1681526020019081526020016000209080519060200190611eeb929190613b0e565b50505050565b606060018054611f0090614fa3565b80601f0160208091040260200160405190810160405280929190818152602001828054611f2c90614fa3565b8015611f795780601f10611f4e57610100808354040283529160200191611f79565b820191906000526020600020905b815481529060010190602001808311611f5c57829003601f168201915b5050505050905090565b611f8b612b7a565b73ffffffffffffffffffffffffffffffffffffffff16611fa9611cd4565b73ffffffffffffffffffffffffffffffffffffffff1614611fff576040517f08c379a0000000000000000000000000000000000000000000000000000000008152600401611ff690614bf7565b60405180910390fd5b82600061200b82611896565b141561204c576040517f08c379a000000000000000000000000000000000000000000000000000000000815260040161204390614cd7565b60405180910390fd5b82601160008673ffffffffffffffffffffffffffffffffffffffff1673ffffffffffffffffffffffffffffffffffffffff168152602001908152602001600020600001600082825461209e9190614e3f565b9250508190555081601160008673ffffffffffffffffffffffffffffffffffffffff1673ffffffffffffffffffffffffffffffffffffffff16815260200190815260200160002060010160008282546120f79190614e3f565b9250508190555050505050565b60095481565b61211c612115612b7a565b838361316d565b5050565b60116020528060005260406000206000915090508060000154908060010154908060020154905083565b33600061215682611896565b1415612197576040517f08c379a000000000000000000000000000000000000000000000000000000000815260040161218e90614cd7565b60405180910390fd5b816040516020016121a891906148a1565b60405160208183030381529060405280519060200120600d6001015414612204576040517f08c379a00000000000000000000000000000000000000000000000000000000081526004016121fb90614b37565b60405180910390fd5b600d60000154601160003373ffffffffffffffffffffffffffffffffffffffff1673ffffffffffffffffffffffffffffffffffffffff16815260200190815260200160002060020154111561228e576040517f08c379a000000000000000000000000000000000000000000000000000000000815260040161228590614cb7565b60405180910390fd5b600a54601160003373ffffffffffffffffffffffffffffffffffffffff1673ffffffffffffffffffffffffffffffffffffffff16815260200190815260200160002060000160008282546122e29190614e3f565b92505081905550600b54601160003373ffffffffffffffffffffffffffffffffffffffff1673ffffffffffffffffffffffffffffffffffffffff168152602001908152602001600020600101600082825461233d9190614e3f565b9250508190555042601160003373ffffffffffffffffffffffffffffffffffffffff1673ffffffffffffffffffffffffffffffffffffffff168152602001908152602001600020600201819055507f6d60c7436b41e3e4b19b35cdca2fc514b81aac6096d8aa0729c8ab3585f7f93b33601160003373ffffffffffffffffffffffffffffffffffffffff1673ffffffffffffffffffffffffffffffffffffffff168152602001908152602001600020600201546040516123fe929190614956565b60405180910390a15050565b61241b612415612b7a565b836132da565b61245a576040517f08c379a000000000000000000000000000000000000000000000000000000000815260040161245190614c97565b60405180910390fd5b612466848484846133b8565b50505050565b612474612b7a565b73ffffffffffffffffffffffffffffffffffffffff16612492611cd4565b73ffffffffffffffffffffffffffffffffffffffff16146124e8576040517f08c379a00000000000000000000000000000000000000000000000000000000081526004016124df90614bf7565b60405180910390fd5b61258d82600f6000858152602001908152602001600020805461250a90614fa3565b80601f016020809104026020016040519081016040528092919081815260200182805461253690614fa3565b80156125835780601f1061255857610100808354040283529160200191612583565b820191906000526020600020905b81548152906001019060200180831161256657829003601f168201915b5050505050613414565b5050565b600a5481565b6060816125a381612b0e565b6125e2576040517f08c379a00000000000000000000000000000000000000000000000000000000081526004016125d990614bd7565b60405180910390fd5b600f6000848152602001908152602001600020805461260090614fa3565b80601f016020809104026020016040519081016040528092919081815260200182805461262c90614fa3565b80156126795780601f1061264e57610100808354040283529160200191612679565b820191906000526020600020905b81548152906001019060200180831161265c57829003601f168201915b5050505050915050919050565b600c60009054906101000a900473ffffffffffffffffffffffffffffffffffffffff1681565b6000600560008473ffffffffffffffffffffffffffffffffffffffff1673ffffffffffffffffffffffffffffffffffffffff16815260200190815260200160002060008373ffffffffffffffffffffffffffffffffffffffff1673ffffffffffffffffffffffffffffffffffffffff16815260200190815260200160002060009054906101000a900460ff16905092915050565b6010602052816000526040600020818154811061275c57600080fd5b9060005260206000200160009150915050805461277890614fa3565b80601f01602080910402602001604051908101604052809291908181526020018280546127a490614fa3565b80156127f15780601f106127c6576101008083540402835291602001916127f1565b820191906000526020600020905b8154815290600101906020018083116127d457829003601f168201915b505050505081565b612801612b7a565b73ffffffffffffffffffffffffffffffffffffffff1661281f611cd4565b73ffffffffffffffffffffffffffffffffffffffff1614612875576040517f08c379a000000000000000000000000000000000000000000000000000000000815260040161286c90614bf7565b60405180910390fd5b60405180604001604052808281526020018360405160200161289791906148a1565b60405160208183030381529060405280519060200120815250600d60008201518160000155602082015181600101559050505050565b6128d5612b7a565b73ffffffffffffffffffffffffffffffffffffffff166128f3611cd4565b73ffffffffffffffffffffffffffffffffffffffff1614612949576040517f08c379a000000000000000000000000000000000000000000000000000000000815260040161294090614bf7565b60405180910390fd5b600073ffffffffffffffffffffffffffffffffffffffff168173ffffffffffffffffffffffffffffffffffffffff1614156129b9576040517f08c379a00000000000000000000000000000000000000000000000000000000081526004016129b090614a17565b60405180910390fd5b6129c2816130a7565b50565b60006129cf612b7a565b73ffffffffffffffffffffffffffffffffffffffff166129ed611cd4565b73ffffffffffffffffffffffffffffffffffffffff1614612a43576040517f08c379a0000000000000000000000000000000000000000000000000000000008152600401612a3a90614bf7565b60405180910390fd5b816000612a4f82611896565b14612a8f576040517f08c379a0000000000000000000000000000000000000000000000000000000008152600401612a8690614b17565b60405180910390fd5b612a9a858585612fcd565b9150509392505050565b60007f01ffc9a7000000000000000000000000000000000000000000000000000000007bffffffffffffffffffffffffffffffffffffffffffffffffffffffff1916827bffffffffffffffffffffffffffffffffffffffffffffffffffffffff1916149050919050565b60008073ffffffffffffffffffffffffffffffffffffffff166002600084815260200190815260200160002060009054906101000a900473ffffffffffffffffffffffffffffffffffffffff1673ffffffffffffffffffffffffffffffffffffffff1614159050919050565b600033905090565b816004600083815260200190815260200160002060006101000a81548173ffffffffffffffffffffffffffffffffffffffff021916908373ffffffffffffffffffffffffffffffffffffffff160217905550808273ffffffffffffffffffffffffffffffffffffffff16612bf58361145d565b73ffffffffffffffffffffffffffffffffffffffff167f8c5be1e5ebec7d5bd14f71427d1e84f3dd0314c0f7b2291e5b200ac8c7c3b92560405160405180910390a45050565b600081600001549050919050565b8273ffffffffffffffffffffffffffffffffffffffff16612c698261145d565b73ffffffffffffffffffffffffffffffffffffffff1614612cbf576040517f08c379a0000000000000000000000000000000000000000000000000000000008152600401612cb690614a57565b60405180910390fd5b600073ffffffffffffffffffffffffffffffffffffffff168273ffffffffffffffffffffffffffffffffffffffff161415612d2f576040517f08c379a0000000000000000000000000000000000000000000000000000000008152600401612d2690614a97565b60405180910390fd5b612d3a83838361348a565b612d45600082612b82565b6001600360008573ffffffffffffffffffffffffffffffffffffffff1673ffffffffffffffffffffffffffffffffffffffff1681526020019081526020016000206000828254612d959190614e95565b925050819055506001600360008473ffffffffffffffffffffffffffffffffffffffff1673ffffffffffffffffffffffffffffffffffffffff1681526020019081526020016000206000828254612dec9190614e3f565b92505081905550816002600083815260200190815260200160002060006101000a81548173ffffffffffffffffffffffffffffffffffffffff021916908373ffffffffffffffffffffffffffffffffffffffff160217905550808273ffffffffffffffffffffffffffffffffffffffff168473ffffffffffffffffffffffffffffffffffffffff167fddf252ad1be2c89b69c2b068fc378daa952ba7f163c4a11628f55a4df523b3ef60405160405180910390a4612eab83838361348f565b505050565b6000612ebb8261145d565b9050612ec98160008461348a565b612ed4600083612b82565b6001600360008373ffffffffffffffffffffffffffffffffffffffff1673ffffffffffffffffffffffffffffffffffffffff1681526020019081526020016000206000828254612f249190614e95565b925050819055506002600083815260200190815260200160002060006101000a81549073ffffffffffffffffffffffffffffffffffffffff021916905581600073ffffffffffffffffffffffffffffffffffffffff168273ffffffffffffffffffffffffffffffffffffffff167fddf252ad1be2c89b69c2b068fc378daa952ba7f163c4a11628f55a4df523b3ef60405160405180910390a4612fc98160008461348f565b5050565b6000336000612fdb82611896565b1461301b576040517f08c379a000000000000000000000000000000000000000000000000000000000815260040161301290614b17565b60405180910390fd5b6130256007613665565b60006130316007612c3b565b905061303d848261367b565b84601060008673ffffffffffffffffffffffffffffffffffffffff1673ffffffffffffffffffffffffffffffffffffffff1681526020019081526020016000209080519060200190613090929190613b0e565b5061309b8187613414565b80925050509392505050565b6000600660009054906101000a900473ffffffffffffffffffffffffffffffffffffffff16905081600660006101000a81548173ffffffffffffffffffffffffffffffffffffffff021916908373ffffffffffffffffffffffffffffffffffffffff1602179055508173ffffffffffffffffffffffffffffffffffffffff168173ffffffffffffffffffffffffffffffffffffffff167f8be0079c531659141344cd1fd0a4f28419497f9722a3daafe3b4186f6b6457e060405160405180910390a35050565b8173ffffffffffffffffffffffffffffffffffffffff168373ffffffffffffffffffffffffffffffffffffffff1614156131dc576040517f08c379a00000000000000000000000000000000000000000000000000000000081526004016131d390614ab7565b60405180910390fd5b80600560008573ffffffffffffffffffffffffffffffffffffffff1673ffffffffffffffffffffffffffffffffffffffff16815260200190815260200160002060008473ffffffffffffffffffffffffffffffffffffffff1673ffffffffffffffffffffffffffffffffffffffff16815260200190815260200160002060006101000a81548160ff0219169083151502179055508173ffffffffffffffffffffffffffffffffffffffff168373ffffffffffffffffffffffffffffffffffffffff167f17307eab39ab6107e8899845ad3d59bd9653f200f220920489ca2b5937696c31836040516132cd919061497f565b60405180910390a3505050565b60006132e582612b0e565b613324576040517f08c379a000000000000000000000000000000000000000000000000000000000815260040161331b90614ad7565b60405180910390fd5b600061332f8361145d565b90508073ffffffffffffffffffffffffffffffffffffffff168473ffffffffffffffffffffffffffffffffffffffff16148061339e57508373ffffffffffffffffffffffffffffffffffffffff1661338684610929565b73ffffffffffffffffffffffffffffffffffffffff16145b806133af57506133ae81856126ac565b5b91505092915050565b6133c3848484612c49565b6133cf84848484613699565b61340e576040517f08c379a0000000000000000000000000000000000000000000000000000000008152600401613405906149f7565b60405180910390fd5b50505050565b8161341e81612b0e565b61345d576040517f08c379a000000000000000000000000000000000000000000000000000000000815260040161345490614bd7565b60405180910390fd5b81600f60008581526020019081526020016000209080519060200190613484929190613a88565b50505050565b505050565b601060008473ffffffffffffffffffffffffffffffffffffffff1673ffffffffffffffffffffffffffffffffffffffff168152602001908152602001600020601060008473ffffffffffffffffffffffffffffffffffffffff1673ffffffffffffffffffffffffffffffffffffffff16815260200190815260200160002090805461351b929190613b6e565b50601060008473ffffffffffffffffffffffffffffffffffffffff1673ffffffffffffffffffffffffffffffffffffffff16815260200190815260200160002060006135679190613bd6565b601160008473ffffffffffffffffffffffffffffffffffffffff1673ffffffffffffffffffffffffffffffffffffffff168152602001908152602001600020601160008473ffffffffffffffffffffffffffffffffffffffff1673ffffffffffffffffffffffffffffffffffffffff168152602001908152602001600020600082015481600001556001820154816001015560028201548160020155905050601160008473ffffffffffffffffffffffffffffffffffffffff1673ffffffffffffffffffffffffffffffffffffffff168152602001908152602001600020600080820160009055600182016000905560028201600090555050505050565b6001816000016000828254019250508190555050565b613695828260405180602001604052806000815250613830565b5050565b60006136ba8473ffffffffffffffffffffffffffffffffffffffff1661388b565b15613823578373ffffffffffffffffffffffffffffffffffffffff1663150b7a026136e3612b7a565b8786866040518563ffffffff1660e01b8152600401613705949392919061490a565b602060405180830381600087803b15801561371f57600080fd5b505af192505050801561375057506040513d601f19601f8201168201806040525081019061374d9190614208565b60015b6137d3573d8060008114613780576040519150601f19603f3d011682016040523d82523d6000602084013e613785565b606091505b506000815114156137cb576040517f08c379a00000000000000000000000000000000000000000000000000000000081526004016137c2906149f7565b60405180910390fd5b805181602001fd5b63150b7a0260e01b7bffffffffffffffffffffffffffffffffffffffffffffffffffffffff1916817bffffffffffffffffffffffffffffffffffffffffffffffffffffffff191614915050613828565b600190505b949350505050565b61383a83836138ae565b6138476000848484613699565b613886576040517f08c379a000000000000000000000000000000000000000000000000000000000815260040161387d906149f7565b60405180910390fd5b505050565b6000808273ffffffffffffffffffffffffffffffffffffffff163b119050919050565b600073ffffffffffffffffffffffffffffffffffffffff168273ffffffffffffffffffffffffffffffffffffffff16141561391e576040517f08c379a000000000000000000000000000000000000000000000000000000000815260040161391590614b97565b60405180910390fd5b61392781612b0e565b15613967576040517f08c379a000000000000000000000000000000000000000000000000000000000815260040161395e90614a77565b60405180910390fd5b6139736000838361348a565b6001600360008473ffffffffffffffffffffffffffffffffffffffff1673ffffffffffffffffffffffffffffffffffffffff16815260200190815260200160002060008282546139c39190614e3f565b92505081905550816002600083815260200190815260200160002060006101000a81548173ffffffffffffffffffffffffffffffffffffffff021916908373ffffffffffffffffffffffffffffffffffffffff160217905550808273ffffffffffffffffffffffffffffffffffffffff16600073ffffffffffffffffffffffffffffffffffffffff167fddf252ad1be2c89b69c2b068fc378daa952ba7f163c4a11628f55a4df523b3ef60405160405180910390a4613a846000838361348f565b5050565b828054613a9490614fa3565b90600052602060002090601f016020900481019282613ab65760008555613afd565b82601f10613acf57805160ff1916838001178555613afd565b82800160010185558215613afd579182015b82811115613afc578251825591602001919060010190613ae1565b5b509050613b0a9190613bf7565b5090565b828054828255906000526020600020908101928215613b5d579160200282015b82811115613b5c578251829080519060200190613b4c929190613a88565b5091602001919060010190613b2e565b5b509050613b6a9190613c14565b5090565b828054828255906000526020600020908101928215613bc55760005260206000209182015b82811115613bc4578282908054613ba990614fa3565b613bb4929190613c38565b5091600101919060010190613b93565b5b509050613bd29190613c14565b5090565b5080546000825590600052602060002090810190613bf49190613c14565b50565b5b80821115613c10576000816000905550600101613bf8565b5090565b5b80821115613c345760008181613c2b9190613cc5565b50600101613c15565b5090565b828054613c4490614fa3565b90600052602060002090601f016020900481019282613c665760008555613cb4565b82601f10613c775780548555613cb4565b82800160010185558215613cb457600052602060002091601f016020900482015b82811115613cb3578254825591600101919060010190613c98565b5b509050613cc19190613bf7565b5090565b508054613cd190614fa3565b6000825580601f10613ce35750613d02565b601f016020900490600052602060002090810190613d019190613bf7565b5b50565b6000613d18613d1384614d6e565b614d49565b90508083825260208201905082856020860282011115613d3757600080fd5b60005b85811015613d8157813567ffffffffffffffff811115613d5957600080fd5b808601613d668982613ec4565b85526020850194506020840193505050600181019050613d3a565b5050509392505050565b6000613d9e613d9984614d9a565b614d49565b905082815260208101848484011115613db657600080fd5b613dc1848285614f61565b509392505050565b6000613ddc613dd784614dcb565b614d49565b905082815260208101848484011115613df457600080fd5b613dff848285614f61565b509392505050565b600081359050613e16816156b6565b92915050565b600082601f830112613e2d57600080fd5b8135613e3d848260208601613d05565b91505092915050565b600081359050613e55816156cd565b92915050565b600081519050613e6a816156cd565b92915050565b600081359050613e7f816156e4565b92915050565b600081519050613e94816156e4565b92915050565b600082601f830112613eab57600080fd5b8135613ebb848260208601613d8b565b91505092915050565b600082601f830112613ed557600080fd5b8135613ee5848260208601613dc9565b91505092915050565b600081359050613efd816156fb565b92915050565b600081519050613f12816156fb565b92915050565b600060208284031215613f2a57600080fd5b6000613f3884828501613e07565b91505092915050565b60008060408385031215613f5457600080fd5b6000613f6285828601613e07565b9250506020613f7385828601613e07565b9150509250929050565b600080600060608486031215613f9257600080fd5b6000613fa086828701613e07565b9350506020613fb186828701613e07565b9250506040613fc286828701613eee565b9150509250925092565b60008060008060808587031215613fe257600080fd5b6000613ff087828801613e07565b945050602061400187828801613e07565b935050604061401287828801613eee565b925050606085013567ffffffffffffffff81111561402f57600080fd5b61403b87828801613e9a565b91505092959194509250565b6000806040838503121561405a57600080fd5b600061406885828601613e07565b925050602083013567ffffffffffffffff81111561408557600080fd5b61409185828601613e1c565b9150509250929050565b600080604083850312156140ae57600080fd5b60006140bc85828601613e07565b92505060206140cd85828601613e46565b9150509250929050565b600080604083850312156140ea57600080fd5b60006140f885828601613e07565b925050602083013567ffffffffffffffff81111561411557600080fd5b61412185828601613ec4565b9150509250929050565b6000806040838503121561413e57600080fd5b600061414c85828601613e07565b925050602061415d85828601613eee565b9150509250929050565b60008060006060848603121561417c57600080fd5b600061418a86828701613e07565b935050602061419b86828701613eee565b92505060406141ac86828701613eee565b9150509250925092565b6000602082840312156141c857600080fd5b60006141d684828501613e5b565b91505092915050565b6000602082840312156141f157600080fd5b60006141ff84828501613e70565b91505092915050565b60006020828403121561421a57600080fd5b600061422884828501613e85565b91505092915050565b60006020828403121561424357600080fd5b600082013567ffffffffffffffff81111561425d57600080fd5b61426984828501613ec4565b91505092915050565b60008060006060848603121561428757600080fd5b600084013567ffffffffffffffff8111156142a157600080fd5b6142ad86828701613ec4565b935050602084013567ffffffffffffffff8111156142ca57600080fd5b6142d686828701613e1c565b92505060406142e786828701613e07565b9150509250925092565b6000806040838503121561430457600080fd5b600083013567ffffffffffffffff81111561431e57600080fd5b61432a85828601613ec4565b925050602083013567ffffffffffffffff81111561434757600080fd5b61435385828601613ec4565b9150509250929050565b6000806040838503121561437057600080fd5b600083013567ffffffffffffffff81111561438a57600080fd5b61439685828601613ec4565b92505060206143a785828601613eee565b9150509250929050565b6000602082840312156143c357600080fd5b60006143d184828501613eee565b91505092915050565b6000602082840312156143ec57600080fd5b60006143fa84828501613f03565b91505092915050565b6000806040838503121561441657600080fd5b600061442485828601613eee565b925050602083013567ffffffffffffffff81111561444157600080fd5b61444d85828601613ec4565b9150509250929050565b61446081614ec9565b82525050565b61446f81614edb565b82525050565b600061448082614dfc565b61448a8185614e12565b935061449a818560208601614f70565b6144a3816150dc565b840191505092915050565b6144b781614f3d565b82525050565b60006144c882614e07565b6144d28185614e23565b93506144e2818560208601614f70565b6144eb816150dc565b840191505092915050565b600061450182614e07565b61450b8185614e34565b935061451b818560208601614f70565b80840191505092915050565b6000614534600983614e23565b915061453f826150ed565b602082019050919050565b6000614557603283614e23565b915061456282615116565b604082019050919050565b600061457a602683614e23565b915061458582615165565b604082019050919050565b600061459d601383614e23565b91506145a8826151b4565b602082019050919050565b60006145c0602583614e23565b91506145cb826151dd565b604082019050919050565b60006145e3601c83614e23565b91506145ee8261522c565b602082019050919050565b6000614606602483614e23565b915061461182615255565b604082019050919050565b6000614629601983614e23565b9150614634826152a4565b602082019050919050565b600061464c602c83614e23565b9150614657826152cd565b604082019050919050565b600061466f603883614e23565b915061467a8261531c565b604082019050919050565b6000614692601383614e23565b915061469d8261536b565b602082019050919050565b60006146b5600c83614e23565b91506146c082615394565b602082019050919050565b60006146d8602a83614e23565b91506146e3826153bd565b604082019050919050565b60006146fb602983614e23565b91506147068261540c565b604082019050919050565b600061471e602083614e23565b91506147298261545b565b602082019050919050565b6000614741602c83614e23565b915061474c82615484565b604082019050919050565b6000614764602c83614e23565b915061476f826154d3565b604082019050919050565b6000614787602083614e23565b915061479282615522565b602082019050919050565b60006147aa601283614e23565b91506147b58261554b565b602082019050919050565b60006147cd601083614e23565b91506147d882615574565b602082019050919050565b60006147f0602183614e23565b91506147fb8261559d565b604082019050919050565b6000614813601083614e23565b915061481e826155ec565b602082019050919050565b6000614836603183614e23565b915061484182615615565b604082019050919050565b6000614859601083614e23565b915061486482615664565b602082019050919050565b600061487c600e83614e23565b91506148878261568d565b602082019050919050565b61489b81614f33565b82525050565b60006148ad82846144f6565b915081905092915050565b60006020820190506148cd6000830184614457565b92915050565b60006060820190506148e86000830186614457565b6148f56020830185614457565b6149026040830184614892565b949350505050565b600060808201905061491f6000830187614457565b61492c6020830186614457565b6149396040830185614892565b818103606083015261494b8184614475565b905095945050505050565b600060408201905061496b6000830185614457565b6149786020830184614892565b9392505050565b60006020820190506149946000830184614466565b92915050565b60006020820190506149af60008301846144ae565b92915050565b600060208201905081810360008301526149cf81846144bd565b905092915050565b600060208201905081810360008301526149f081614527565b9050919050565b60006020820190508181036000830152614a108161454a565b9050919050565b60006020820190508181036000830152614a308161456d565b9050919050565b60006020820190508181036000830152614a5081614590565b9050919050565b60006020820190508181036000830152614a70816145b3565b9050919050565b60006020820190508181036000830152614a90816145d6565b9050919050565b60006020820190508181036000830152614ab0816145f9565b9050919050565b60006020820190508181036000830152614ad08161461c565b9050919050565b60006020820190508181036000830152614af08161463f565b9050919050565b60006020820190508181036000830152614b1081614662565b9050919050565b60006020820190508181036000830152614b3081614685565b9050919050565b60006020820190508181036000830152614b50816146a8565b9050919050565b60006020820190508181036000830152614b70816146cb565b9050919050565b60006020820190508181036000830152614b90816146ee565b9050919050565b60006020820190508181036000830152614bb081614711565b9050919050565b60006020820190508181036000830152614bd081614734565b9050919050565b60006020820190508181036000830152614bf081614757565b9050919050565b60006020820190508181036000830152614c108161477a565b9050919050565b60006020820190508181036000830152614c308161479d565b9050919050565b60006020820190508181036000830152614c50816147c0565b9050919050565b60006020820190508181036000830152614c70816147e3565b9050919050565b60006020820190508181036000830152614c9081614806565b9050919050565b60006020820190508181036000830152614cb081614829565b9050919050565b60006020820190508181036000830152614cd08161484c565b9050919050565b60006020820190508181036000830152614cf08161486f565b9050919050565b6000602082019050614d0c6000830184614892565b92915050565b6000606082019050614d276000830186614892565b614d346020830185614892565b614d416040830184614892565b949350505050565b6000614d53614d64565b9050614d5f8282614fd5565b919050565b6000604051905090565b600067ffffffffffffffff821115614d8957614d886150ad565b5b602082029050602081019050919050565b600067ffffffffffffffff821115614db557614db46150ad565b5b614dbe826150dc565b9050602081019050919050565b600067ffffffffffffffff821115614de657614de56150ad565b5b614def826150dc565b9050602081019050919050565b600081519050919050565b600081519050919050565b600082825260208201905092915050565b600082825260208201905092915050565b600081905092915050565b6000614e4a82614f33565b9150614e5583614f33565b9250827fffffffffffffffffffffffffffffffffffffffffffffffffffffffffffffffff03821115614e8a57614e8961504f565b5b828201905092915050565b6000614ea082614f33565b9150614eab83614f33565b925082821015614ebe57614ebd61504f565b5b828203905092915050565b6000614ed482614f13565b9050919050565b60008115159050919050565b60007fffffffff0000000000000000000000000000000000000000000000000000000082169050919050565b600073ffffffffffffffffffffffffffffffffffffffff82169050919050565b6000819050919050565b6000614f4882614f4f565b9050919050565b6000614f5a82614f13565b9050919050565b82818337600083830152505050565b60005b83811015614f8e578082015181840152602081019050614f73565b83811115614f9d576000848401525b50505050565b60006002820490506001821680614fbb57607f821691505b60208210811415614fcf57614fce61507e565b5b50919050565b614fde826150dc565b810181811067ffffffffffffffff82111715614ffd57614ffc6150ad565b5b80604052505050565b600061501182614f33565b91507fffffffffffffffffffffffffffffffffffffffffffffffffffffffffffffffff8214156150445761504361504f565b5b600182019050919050565b7f4e487b7100000000000000000000000000000000000000000000000000000000600052601160045260246000fd5b7f4e487b7100000000000000000000000000000000000000000000000000000000600052602260045260246000fd5b7f4e487b7100000000000000000000000000000000000000000000000000000000600052604160045260246000fd5b6000601f19601f8301169050919050565b7f5458204641494c45440000000000000000000000000000000000000000000000600082015250565b7f4552433732313a207472616e7366657220746f206e6f6e20455243373231526560008201527f63656976657220696d706c656d656e7465720000000000000000000000000000602082015250565b7f4f776e61626c653a206e6577206f776e657220697320746865207a65726f206160008201527f6464726573730000000000000000000000000000000000000000000000000000602082015250565b7f494e53554646494349454e5420414d4f554e5400000000000000000000000000600082015250565b7f4552433732313a207472616e736665722066726f6d20696e636f72726563742060008201527f6f776e6572000000000000000000000000000000000000000000000000000000602082015250565b7f4552433732313a20746f6b656e20616c7265616479206d696e74656400000000600082015250565b7f4552433732313a207472616e7366657220746f20746865207a65726f2061646460008201527f7265737300000000000000000000000000000000000000000000000000000000602082015250565b7f4552433732313a20617070726f766520746f2063616c6c657200000000000000600082015250565b7f4552433732313a206f70657261746f7220717565727920666f72206e6f6e657860008201527f697374656e7420746f6b656e0000000000000000000000000000000000000000602082015250565b7f4552433732313a20617070726f76652063616c6c6572206973206e6f74206f7760008201527f6e6572206e6f7220617070726f76656420666f7220616c6c0000000000000000602082015250565b7f4d555354204245204e4f4e4520484f4c44455200000000000000000000000000600082015250565b7f57524f4e4720414e535745520000000000000000000000000000000000000000600082015250565b7f4552433732313a2062616c616e636520717565727920666f7220746865207a6560008201527f726f206164647265737300000000000000000000000000000000000000000000602082015250565b7f4552433732313a206f776e657220717565727920666f72206e6f6e657869737460008201527f656e7420746f6b656e0000000000000000000000000000000000000000000000602082015250565b7f4552433732313a206d696e7420746f20746865207a65726f2061646472657373600082015250565b7f4552433732313a20617070726f76656420717565727920666f72206e6f6e657860008201527f697374656e7420746f6b656e0000000000000000000000000000000000000000602082015250565b7f4552433732314d657461646174613a2055524920736574206f66206e6f6e657860008201527f697374656e7420746f6b656e0000000000000000000000000000000000000000602082015250565b7f4f776e61626c653a2063616c6c6572206973206e6f7420746865206f776e6572600082015250565b7f494e53554646494349454e5420464f554e440000000000000000000000000000600082015250565b7f4d55535420424520475445203165313800000000000000000000000000000000600082015250565b7f4552433732313a20617070726f76616c20746f2063757272656e74206f776e6560008201527f7200000000000000000000000000000000000000000000000000000000000000602082015250565b7f496e76616c696420696d61676555524900000000000000000000000000000000600082015250565b7f4552433732313a207472616e736665722063616c6c6572206973206e6f74206f60008201527f776e6572206e6f7220617070726f766564000000000000000000000000000000602082015250565b7f414c524541445920414e53574552454400000000000000000000000000000000600082015250565b7f4d55535420424520484f4c444552000000000000000000000000000000000000600082015250565b6156bf81614ec9565b81146156ca57600080fd5b50565b6156d681614edb565b81146156e157600080fd5b50565b6156ed81614ee7565b81146156f857600080fd5b50565b61570481614f33565b811461570f57600080fd5b5056fea2646970667358221220cefb8c0ed184e8b56adb17bddf18d8084de5f1a552f6e1a21e2f0f4d461d293064736f6c63430008040033",
  "linkReferences": {},
  "deployedLinkReferences": {}
}